:100000006F00900A130000001300000013000000AE
:100010001300000013000000130000001300000094
:100020001300000013000000130000001300000084
:08003000130000007300100032
:100038000000000000000000880400008C0400009C
:1000480000000000EE0700000000000000000000B3
:10005800F0070000F20700000000000000000000A8
:10006800F407000000000000F60700000000000090
:10007800F8070000FA070000FC070000FE07000070
:10008800000800000208000004080000060800003C
:10009800080800000A0800000C0800000E0800000C
:1000A80010080000120800001408000016080000DC
:1000B800180800001A0800001C0800001E080000AC
:1000C800200800002208000024080000260800007C
:1000D800280800002A0800002C0800002E0800004C
:1000E800300800003208000034080000360800001C
:1000F800380800003A0800003C0800003E080000EC
:1001080040080000420800004408000046080000BB
:10011800480800004A0800004C0800004E0800008B
:10012800500800005208000054080000560800005B
:10013800580800005A0800005C0800005E0800002B
:1001480060080000620800006408000066080000FB
:10015800680800006A0800006C0800006E080000CB
:10016800700800007208000074080000760800009B
:10017800780800007A0800007C0800007E0800006B
:10018800800800008208000084080000860800003B
:10019800880800008A0800008C0800008E0800000B
:1001A80090080000920800009408000096080000DB
:1001B800980800009A0800009C0800009E080000AB
:1001C800A0080000A2080000A4080000A60800007B
:1001D8000000000000000000000000000000000017
:1001E8000000000000000000000000000000000007
:0801F8000000000000000000FF
:10020000397101436EC619A0397141536AC866CA73
:1002100062CC5ECE19A0397101535AD056D252D455
:100220004ED64AD826DA22DC06DE330161408282CD
:1002300041114AC026C222C406C68282B24D410183
:10024000024D924C224CB24B4101024B924A224A3F
:10025000B2494101024992442244B24041018280A4
:100260003D432A876373C3029377F700BDEFADE583
:10027000937606FF3D8ABA960CC34CC30CC74CC795
:100280004107E36BD7FE11E28280B306C3408A06C2
:100290009702000096966780A6002307B700A30682
:1002A000B7002306B700A305B7002305B700A304D2
:1002B000B7002304B700A303B7002303B700A302CA
:1002C000B7002302B700A301B7002301B700A300C2
:1002D000B7002300B700828093F5F50F9396850051
:1002E000D58D93960501D58D61B79396270097021A
:1002F000000096968682E78086FA9680C1171D8F49
:100300003E96E374C3F8A5B7EFF29FF237150140AC
:1003100005468545130505C0EF00901D25BFEFF28A
:100320003FF13715014001468545130505C0EF0033
:10033000301C0DB7EFF2DFEF371501400546894558
:10034000130505C0EF00D01A31B7EFF27FEE371575
:10035000014001468945130505C0EF007019DDBD58
:10036000EFF21FED5537F9370945EF001046F13F21
:10037000D5B5EFF2FFEB65370945EF001045F137D2
:100380000945EF00904449370945EF0010445D37B7
:10039000D1B5EFF2FFE961371545EF001043AD37F6
:1003A0000945EF009042A53F75B5EFF27FE8AA84BA
:1003B0002144B53793F7140089CFAD3F0D45EF00C9
:1003C000D04099370D457D148580EF00104075F0C1
:1003D00051B5A53FE5B7EFF21FE489664111AA8444
:1003E0002A87814705439386061C2948094E914870
:1003F00063146600014509C7336507033695082174
:100400006000B30EF4002380AE006397C70189C576
:100410000887136505F84887850733470703E3997D
:1004200017FD3D3F130500044937A53799370D3FA8
:100430001305000C9D3F0D44A93F9309F0037D591E
:1004400099E0230631017C00A29788237D14B13FF7
:100450008937E31724FF313F4101C5BBEFF25FDD70
:1004600041112AC6F53D3245130575F81375F50F90
:100470002D3F0537FD3D4101F1BBEFF27FDB1D450F
:10048000F13F2145E13FF9B37300203001A0EFF2C5
:100490003FDA41118545214502C202C402C6EF0080
:1004A000501E8D47371401407C82C1473EC64C0028
:1004B0008947130504C03EC4EF00807701468D458F
:1004C000130504C0EF00D002410169B3EFF25FD61B
:1004D0007971130600028145080859338545114595
:1004E00002C202C402C6EF00D019854513050020E0
:1004F000EF0030193165EF00500037150140894792
:100500004C0013050580372401407C8202C6EF00B1
:100510002072130504403129854737070E000C0867
:10052000130504403ECC3ACE2302F10202C802CAAF
:1005300002D08121854513050440792181451305A9
:100540000440712B1305044041299304044026857F
:10055000492975FD1305044037240140792193048E
:1005600004402685412975FD130504406923239C19
:10057000A1804561C5B1EFF2BFCB37240140AA8508
:100580009D46054613050440712185451305044029
:10059000B52193040440894526852D2B6DDD130577
:1005A00004402D2345B9EFF2BFC84922EF00501F88
:1005B000716513050520EF001028B707002083A5FB
:1005C0000708372500001305451DEF00F031A12D68
:1005D000AA85372500001305451EEF00F030453D84
:1005E000693DED3583D58181372500001305451F11
:1005F000EF00902F372401409D46054685451305A1
:1006000004400929854513050440CD2EB724000078
:10061000054595372A84AA851385C420EF00D02C80
:10062000228505468145453B1305803EEF00501D60
:10063000C5B7B71702409843B706FFF841111367D3
:10064000170098C3D84337060200758FD8C3984364
:10065000B706F7FEFD16758F98C39843B706FCFFE3
:10066000FD16758F98C3D843B70681FFFD16758FA9
:10067000D8C39843B70600ECFD16758F98C33707AB
:10068000FF0098C723A6070202C402C69843C166AA
:10069000558F98C3B716024005679C42F18F3EC63E
:1006A000A24785073EC4B24781E7A247E397E7FE2A
:1006B000B71702409C431397E70063570706854727
:1006C0003EC632478547631FF704B7170240D84339
:1006D000B706C1FFFD16D8C3D843D8C3D8431367A4
:1006E0000740D8C3D843758FD8C3D843B70629006D
:1006F000558FD8C39843B7060001558F98C39843C8
:1007000093166700E3DD06FED843B7160240719BDF
:10071000D8C3D84313672700D8C32147DC42B18B25
:10072000E39EE7FE4101828002C661BF37160240A8
:100730005C42370700209146B18B13070708638599
:10074000D700A1466388D702B7177A00938707209E
:100750001CC3B7170240DC43918393F6F700B70739
:10076000002093870700B69794231C43B3D7D70084
:100770001CC3828054425042C167C982BD8A7D8EAB
:100780009387260085CABD466389D702C14663891F
:10079000D702C54581466393B700C1470DE637468A
:1007A000024003260680418A15C637167A001306D2
:1007B00006202DA08146C947D5B78546B547F9BF64
:1007C0008146BD47E1BF3716024050429315E6000F
:1007D000E3DD05FC37163D0013060690B387C7021C
:1007E0001CC3A5DA1C438583A5B701A001A001A005
:1007F00001A001A001A001A001A001A001A001A0F1
:1008000001A001A001A001A001A001A001A001A0E0
:1008100001A001A001A001A001A001A001A001A0D0
:1008200001A001A001A001A001A001A001A001A0C0
:1008300001A001A001A001A001A001A001A001A0B0
:1008400001A001A001A001A001A001A001A001A0A0
:1008500001A001A001A001A001A001A001A001A090
:1008600001A001A001A001A001A001A001A001A080
:1008700001A001A001A001A001A001A001A001A070
:1008800001A001A001A001A001A001A001A001A060
:1008900001A001A001A001A001A001A001A001A050
:1008A00001A001A001A001A097010020938181FD7A
:1008B0001771002013010175172500001305859F8E
:1008C00097F5FF1F938505741386818163FAC50030
:1008D0008322050023A0550011059105E3EAC5FE1A
:1008E000138581819385C1826377B500232005003C
:1008F0001105E36DB5FEFD42739002BCAD427390ED
:100900004280B76200009382820873A0023097F29F
:10091000FFFF9382A27293E2320073905230EFF0A5
:100920005FD197020000938242C873901234730023
:100930002030EFF2FF8FB727014093870740631CF9
:10094000F500854513050020A12B814513050020E6
:10095000812B6FF03F90B737014093870780E31AF0
:10096000F5FE854513050040252B81451305004004
:10097000C5B75C413707F1E01307F7EF944D7D8F62
:100980009C41D58FD44DD58FD441A206D58FD98F18
:100990005CC11C4537F7F1FF1307D77FD4457D8F26
:1009A0009C49D58F94458606D58FD98F1CC55C553B
:1009B000370710FF7D177D8FDC29FD1793F7F70FA1
:1009C000D207D98F5CD582801C4589C593E7170073
:1009D0001CC58280F99BEDBF1C4593E787001CC5B1
:1009E000828008450D81058982801C4593E7470078
:1009F0001CC5828008450981058982801C4591C5F6
:100A000037075000D98F1CC582803707B0FF7D178C
:100A1000F98FD5BFA54763F7B7048D47138765FFE7
:100A20003307F7020328C5009D47B397E70093C734
:100A3000F7FFB3F70701B396E600DD8E54C599477B
:100A400063E3C70495477D163306F6025859FD4700
:100A5000B397C70093C7F7FFF98F3396C5005D8E34
:100A600050D982800D473387E502032805019D4751
:100A7000B397E70093C7F7FFB3F70701B396E60014
:100A8000DD8E14C96DBFB14763E2C7029547651695
:100A90003306F6021859FD47B397C70093C7F7FF0F
:100AA000F98F3396C5005D8E10D9828095474D161B
:100AB0003306F6025855FD47B397C70093C7F7FFB3
:100AC000F98FB395C500DD8D4CD582806845420510
:100AD0004181828008416D8D3335A00082805C4168
:100AE00091C537070004D98F5CC18280370700FCAD
:100AF0007D17F98FD5BFEFF2AFF301112A842304DC
:100B00000100A5441C8463F9F40423040100A546F4
:100B100021461C8463FDF606231501002304010011
:100B200095461C8463FFF60C38853C8599460D4636
:100B3000B3F7D702056513050580B3D7C70233574E
:100B4000D702BA97C207C1837C853C8505611D8D9C
:100B5000420541856FF00FF01C4493E787001CC4E9
:100B60002285413575FD1C4493E747001CC422854E
:100B7000513575FD78441C8414108607B69723966A
:100B8000E7FE1C84850793F7F70F5C84A5BFA304D9
:100B900001009C846378F6001C84850793F7F70FA7
:100BA0005C8485BF98849C840C10060785078607A3
:100BB0002E97AE970357C7FE83D7C7FE63FDE702A4
:100BC0009C848607AE9783D7C7FE7C859C849884D7
:100BD00085078607AE9783D5C7FE931717001810B1
:100BE000BA972396B7FE9C8438850C108507860734
:100BF000AE972396E7FE9C84850793F7F70FDC8476
:100C000049BF1C841010388589078607B29783D79F
:100C1000C7FEBA97C207C1837C851C84850793F7FA
:100C2000F70F5C84FDBDB7F7FF1F03A547708280F7
:100C30009C4513F7070113F8F70001C7D841336843
:100C4000E8008E2113F7F50F39C318418146854E10
:100C50003D4F930F800293028004214E3396DE00B5
:100C6000B3F8C500631116039398260033131F01D0
:100C70001343F3FF3377E300B318180133E7E800B9
:100C8000639FF70550C98506E39AC6FD18C113078F
:100C9000F00F6375B70454412146854E3D4F930FC5
:100CA000800293028004414EB398CE0033F71501C1
:100CB0006392E8021317260001173313EF00134362
:100CC000F3FFB376D3003317E800D98E639DF701A5
:100CD000232A15010506E319C6FD54C18280E39459
:100CE00057FA10C94DB7E39757FE23281501DDB712
:100CF00019C20CC982804CC98280B7160240DC42FE
:100D000051777D17F98F5D8DC8C2828037170240F9
:100D10005C439146B18B6385D700A1466382D706B9
:100D2000B7177A00938707201CC1371602405C4230
:100D300037070020130707019183BD8BBA979423CF
:100D40001C41B3D7D7005CC15442A1829D8ABA9698
:100D50009422B3D6D70014C55442AD829D8A3697EB
:100D60001823B3D7E7005CC5584239839376370020
:100D70001387418036971823B3D7E7021CC98280B6
:100D80005C435843C166C983758FB7F6FF1F83A6BE
:100D9000C670BD8B89071396160163480600C546C9
:100DA00001466392D702C94739A88946638FD702A3
:100DB000BD46638ED702C146638ED702C546014643
:100DC0006393D700C1471DEF3747024003270780D1
:100DD000418B05C737177A0013070720B307F702BF
:100DE0001CC121D61C41858381B701466DBF0546D4
:100DF000B547D1BF0146BD47F9B737173D001307C7
:100E00000790E9BFB7150240D8559316F700D8559B
:100E100063DF060411833D8B9306170037177A00B2
:100E2000130707203357D70218C1D455A182BD8AB2
:100E30008DE295463307D702058318C13717024064
:100E4000585714413D8B050733D7E60218C11841A6
:100E500071B785456394B600E546E9BFBD45639625
:100E6000B600D1463387E602C9BF8906E5BF3D8B90
:100E70009306170037177A00130707203357D70256
:100E8000F1B799C5371702401C4F5D8D08CF82809E
:100E9000B7170240984F1345F5FF798D88CF8280B0
:100EA00099C5371702405C475D8D48C78280B717E8
:100EB0000240D8471345F5FF798DC8C78280EFF20D
:100EC0002FB71629F577FD17F58FF621DA257971F9
:100ED000D58F1EA95625FD779387379FF58FD6218D
:100EE0002A842EC6D58F9625D58FB625D58F5EA59B
:100EF0005E29C207C18393F7F7CFD98F5EA968082F
:100F00003135B747014093870780B245631AF4042F
:100F1000A25756246547B387E702C206C1869841A7
:100F200063D20604060752244206B3D7E70213072A
:100F300040064186B3D6E702B3F7E702920663554F
:100F400006028E0793872703B3D7E70213F77700CC
:100F5000B367D700C207C1831EA445616FF08FAF8E
:100F6000925745BF0A07C1B7920793872703B3D7A4
:100F7000E702BD8BD58FF9BF91C55E250967D98F73
:100F80005EA582805A25F977FD17F98FD5BF93F5B5
:100F9000F51F4EA182800A216D8D3335A00082801D
:100FA000B707002083A7070837177A001307072021
:100FB000B3D7E70293F7F70F238EF1801307803E34
:100FC000B387E702239DF1808280B7F700E0D84322
:100FD0008146799BD8C303C7C1813306A70290CB52
:100FE000D4CB98431367070198C39843136717023C
:100FF00098C3D843058B75DF9843799B98C382804B
:10100000B7F700E0D8438146799BD8C303D7A181C5
:101010003306A70290CBD4CB98431367070198C33C
:1010200098431367170298C3D843058B75DF98431D
:10103000799B98C38280EFF2AF9F2A8411650111DA
:10104000854511053D3D930700207C823715014001
:101050008D473EC44C00E147130505803EC6C93E9E
:1010600022C837440140B70708000C081305048064
:101070003ECC02CA231E0100993585451305048024
:10108000E53D05616FF00F9DEFF2EF98B744014029
:10109000AE893289014493840480634524014A85E2
:1010A0006FF0AF9A930500042685F53565DDB387AB
:1010B00089008385070026850504C205C181C13DDD
:1010C000E9BF138781801C439386C1823E95636B81
:1010D000D500B78600209386068063E5A60008C386
:1010E0003E858280FD57EDBF39713EDA2ED232D473
:1010F00036D63AD842DC46DE9387C18022CC804384
:1011000026CA06CEAA8409C41C4C99E32285F9207C
:101110000C4454102686228536C6A526F240624429
:10112000D24421618280411122C406C62A844EA580
:1011300072A5232005002322050023240500232275
:10114000050623280500232A0500232C0500214637
:1011500081451305C505EFF0AF9097170000938701
:1011600067985CD0971700009387879A1CD49717CD
:1011700000009387679E5CD4971700009387C7A0F1
:1011800000D01CD8B2402244410182809715000053
:10119000938505D4A9A2411126C213068006938423
:1011A000F5FFB384C4024AC02E8922C406C69385C3
:1011B0004407592A2A8401CD232005002322250132
:1011C000310508C4138684068145EFF06F892285B6
:1011D000B240224492440249410182801C4DADE359
:1011E000411106C622C497070000938767FA1CD5F1
:1011F000938701819C432324050423260504232887
:1012000005046314F50085471CCD2A841D2848C0B9
:101210002285052808C422852D2048C4484001465F
:101220009145113708440546A545F53D4844094612
:10123000C945D53D85471CCCB2402244410182803E
:10124000828041119387018126C284434AC006C629
:101250009C4C22C42A8999E32685493793848404C7
:101260008044DC40FD1763D607009C40B9CF844022
:10127000C5BF0317C40039E7C177850723220406D9
:101280002320040023220400232404005CC4232818
:101290000400232A0400232C040021468145130561
:1012A000C405EFE0FFFB232A0402232C04022324BD
:1012B0000404232604042285B240224492440249B5
:1012C000410182801304840671BF91454A85E1354E
:1012D00088C051FDB1472320F9000144E9BF79716D
:1012E00022D44AD052CC56CA5AC85EC606D626D296
:1012F0004ECE2A8AAE8A130485040149054BFD5B54
:1013000009ECB25022544A8592540259F249624A79
:10131000D24A424BB24B4561828004448329440047
:10132000FD1963D409000040E1BFDE24637BFB00AC
:101330008397E40063877701A6855285829A336993
:10134000A90093848406E9BF011126CA938435005D
:10135000F19806CE22CC4AC84EC6A104B14763F329
:10136000F404B14463E2B4042A89EF00304F938758
:10137000018298433A8439E0938741829C4391E704
:1013800081454A850D2F23A2A182A6854A8525275E
:10139000FD5963193507B1472320F9004A85EF004D
:1013A000104C29A0E3D004FCB1471CC10145F24018
:1013B0006244D2444249B249056182801C40858F13
:1013C00063CF0702AD4663F6F6001CC03E9404C02E
:1013D00031A05C406313870223A0F1824A85EF00AD
:1013E00010481305B4009307440061993307F54092
:1013F0005DDF3A94898F1CC05DBF5CC3C5B722878F
:10140000404095BF130435007198E30285FCB30595
:10141000A4404A854D25E31C35FBB5BF1C46FD178E
:101420001CC663D90700184E63C5E700A94763933C
:10143000F500A1AF1C422E851387170018C28CA39C
:101440008280011122CC26CA4AC84EC652C406CE9A
:101450002A89AE893284B304D6007D5A631494007D
:10146000014501A80C204E864A854D3F0504E3172F
:1014700045FFF2406244D2444249B249224A0561E2
:101480008280357122CD26CB4AC94EC706CF52C5C0
:1014900056C35AC1DEDEE2DCE6DAAA89AE843289BE
:1014A000368401C51C4D91E3153B971700009387C7
:1014B000A7D86398F40C83A44900DE24A18BE5C768
:1014C0009C48F5C393070002A304F10293070003AD
:1014D00002D22305F10222C6930B5002971A000094
:1014E000938A8AD9054C294B4A841C2099C3639E50
:1014F000770DB30C2441638D0C00E6864A86A685E1
:101500004E858137FD576301F51E9256E69636D219
:101510001C20638B071CFD571309140002C802CE60
:101520003ECA02CCA309010482D4834509001546B2
:101530005685EF00303113041900C24749E913F70B
:10154000070109C713070002A309E10413F7870085
:1015500009C71307B002A309E10483460900130772
:10156000A002638EE606F2474A848146254618208B
:1015700093051400130707FD6376E60AADCA3ECE55
:10158000BDA097170000938727CD6395F40083A42F
:10159000890025B797170000938707C8E39FF4F0E9
:1015A00083A4C90019BFA6854E85F12501DD7D55AF
:1015B000FA406A44DA444A49BA492A4A9A4A0A4BE2
:1015C000F65B665CD65C0D618280050439BF33052D
:1015D00055413315AC00C98F3EC82289B9B732478F
:1015E00093064700184336C6634707023ACE1820D1
:1015F0009307E002631DF70418309307A002631BF2
:10160000F702B2470904138747009C433AC663C1F7
:1016100007023ECA2DA83307E04093E727003ACEE1
:101620003EC8F1B7B387670385462E84BA9781B762
:10163000FD57C5B7050402CA8146814725461820D3
:1016400093051400130707FD6376E606F9F20C20F4
:101650000D46171500001305A5C2EF00B01E11CDF1
:10166000971700009387C7C11D8D93070004B39798
:10167000A700424505045D8D2AC80C2019461715A0
:101680000000130525C0130914002304B102EF0064
:10169000701B35C197F7FFFF9387C79695E74247C1
:1016A000B2471377071009CF91073EC69257D297DA
:1016B0003ED21DBDB387670385462E84BA9741B7D6
:1016C0009D07E19BA107D5B7780097060000938698
:1016D00086D726860C084E8597000000E70000009C
:1016E000FD572A8AE314F5FCDE2493F70704E39000
:1016F00007EC125575BD7800970600009386A6D4B6
:1017000026860C084E85012AE1BF797156CA9C498C
:10171000BA8A984522D426D24ECE52CC06D64AD08A
:101720005AC85EC6AA892E84B284368A63D3E7007B
:10173000BA879CC00347340419C385079CC01C406A
:1017400093F7070281C79C4089079CC003290400C6
:1017500013796900631A0900130B9401FD5B5C4463
:101760009840998F634CF9041C408346340493F7E6
:101770000702B336D000A5EB13063404D2854E859C
:10178000829AFD576303F5041C4011469840998BDB
:10179000544481446397C700B384E64063D3040094
:1017A00081441C4418486354F700998FBE94014942
:1017B00069047D5B63982405014509A885465A861E
:1017C000D2854E85829A631E75017D55B250225492
:1017D00092540259F249624AD24A424BB24B456195
:1017E00082800509ADBF3307D40013060003A301AF
:1017F000C7040347540493871600A2978906A38160
:10180000E7049DBF85462286D2854E85829AE30EE7
:1018100065FB050945B7797122D426D24AD04ECE50
:1018200006D652CC56CA5AC8B689942D930790064C
:101830003289AA842E8413863504638DF60263E20E
:10184000D706930780056385F61863EDD700638D8F
:10185000062093073004638EF60A930A24042301BA
:10186000D404C9A0930730066385F60A930740069F
:10187000E395F6FE1C40084393F6070893054500E0
:10188000C5C61C410CC363D807001307D002B307B9
:10189000F040A301E404971600009386269F294791
:1018A00065A8930700076381F61663E5D7029307DF
:1018B000E0066388F6189307F006E390F6FA0C400A
:1018C0001C4313F80508138547006307080608C37F
:1018D0009C4385A893075007E383F6FE9307800790
:1018E0006388F61293073007E399F6F61C43D0415C
:1018F00081459386470014C383AA0700568599271C
:1019000001C53305554148C05C401CC8A30104040F
:1019100061A81C43930A2404938647009C4314C384
:101920002301F4048547D5B793F607041C410CC383
:10193000B9DAC207C18781BF93F5050408C3C9D9C5
:101940009E231307F0066386E60E97160000938623
:10195000E6932947A30104044C400CC463C5050069
:1019600008406D9908C099E3B28A89CDB28AB3F56F
:10197000E702FD1AB6958C212380BA00B3D5E702A1
:1019800063FFE70AA147631EF7001C40858B91CBDC
:1019900058401C4863C7E70093070003A38FFAFE73
:1019A000FD1A3306564110C84E87CA867000A285BC
:1019B0002685A13B7D5A631D450B7D55B2502254AF
:1019C00092540259F249624AD24A424B456182809E
:1019D000A382D504971600009386468B0C400843DB
:1019E00013F805081C411105630D080208C313F71D
:1019F000150001C793E505020CC04147A1FF0C404B
:101A000093F5F5FD0CC0B9B79C4193E707029CC163
:101A100093078007A302F404971600009386468874
:101A200075BF13F8050408C3E30308FCC207C183AC
:101A30007DBF9716000093866685214721BFAE873C
:101A40003DB794411C43CC4913F806081385470061
:101A50006306080008C39C438CC339A008C393F6EF
:101A600006049C43F5DA8EA323280400B28A2DBF16
:101A700014485686CA8526858299E30045F51C40A0
:101A8000898B8DE7B2474844E35AF5F23E853DB76E
:101A900085465686CA8526858299E30065F3050A40
:101AA0005C443247998FE345FAFEE9BF014A930A45
:101AB00094017D5BF5B7411122C42A842E8523A4AD
:101AC000018206C6EFF0EFDFFD576317F50093873D
:101AD00081829C4391C31CC0B24022444101828058
:101AE000411122C42E848395E50006C6212D634949
:101AF00005007C48AA977CC8B240224441018280FC
:101B00005E247D777D17F98F5EA4FDB7DE25011178
:101B100022CC26CA4AC84EC606CE93F70710AA841E
:101B20002E843289B68991C78395E500894601469E
:101B300009215E247D777D17F98F5EA48315E4006B
:101B40006244F240CE864A86B24942492685D24452
:101B50000561DDA8411122C42E848395E50006C6E7
:101B6000C92EFD575A24631AF500FD77FD17F98F2A
:101B70005EA4B2402244410182808567D98F5EA471
:101B800068C8C5BF8395E500F5A2011122CC26CA1D
:101B90004AC806CE4EC6AA842E89328409C51C4D79
:101BA00099E3EFF0AFE3970700009387E7686317C7
:101BB000F406C0401C4C1CC45E24A18BC1C31C484D
:101BC000B5CF1C4808409379F90F1379F90F1D8D93
:101BD0005C486346F500A2852685CD2C25E51C448E
:101BE0000505FD171CC41C401387170018C023806F
:101BF00037015C486388A7005E24858B81CBA947A9
:101C00006316F900A2852685D1240DEDF2406244C9
:101C10004A85D2444249B249056182809707000053
:101C2000938787636314F400804469B797070000C3
:101C30009387875EE310F4F8C044ADBFA285268584
:101C40001D2841D17D59D9B7411122C42A842E853E
:101C5000B285368623A4018206C6EFF0EFC2FD5797
:101C60006317F500938781829C4391C31CC0B240E7
:101C700022444101828041119387C18026C284435E
:101C800022C44AC006C62A892E8491C49C4C81E78E
:101C90002685EFF0AFD4970700009387E759631BC1
:101CA000F402C0400317C40093170701C18393F6E1
:101CB0008700ADEA93F6070195EEA5472320F900CA
:101CC000136707045AA47D55B24022449244024946
:101CD0004101828097070000938707586314F4003E
:101CE0008044C9B79707000093870753E31CF4FAB1
:101CF000C0444DBF918B9DC34C5889C99307440480
:101D00006384F5004A85A92E232A04025E24232237
:101D1000040093F7B7FD5EA41C481CC05E2493E743
:101D200087005EA41C4899EB5E241307002093F7FC
:101D300007286385E700A2854A85AD2C5E2413F74A
:101D400017001DC35C4823240400B307F0401CCCDB
:101D50001C480145B5FB8317C40013F707082DD7AE
:101D600093E707045EA485B7898B014791E3584840
:101D700018C4F9BF411122C42A842E8523A40182EC
:101D800006C60121FD576317F500938781829C43A6
:101D900091C31CC0B240224441018280DE25011162
:101DA00022CC26CA06CE4AC84EC613F78700AA849C
:101DB0002E8479EBD841634DE000B841634AE000DE
:101DC0000145F2406244D2444249B24905618280F1
:101DD00058547DD703A904009396370123A004002B
:101DE00063DB060670485E24918B99C75C401D8EAC
:101DF0005C5899C33C401D8E5C540C50814626852E
:101E00008297FD575A24631DF5009440F54763E817
:101E1000D706B70740208507B3D7D700858BA5C362
:101E20001C48232204001CC09317370163D8070005
:101E3000FD576314F5009C4091E368C84C5823A0FB
:101E40002401BDDD930744046384F5002685092C35
:101E5000232A0402B5B70C50014685462685029711
:101E6000FD572A86E311F5F89C40B5DF7547638579
:101E7000E70059476393E70423A0240191B7136750
:101E800007045AA47D5535BF83A90501E38A09F2E9
:101E900003A905008D8B23A0350133093941014782
:101EA00091E3D84918C4E35D20F11C540C50CA8654
:101EB0004E86268582976347A0005E2493E7070439
:101EC0005EA4C9B7AA993309A940F1BF9C49A5C32B
:101ED000011122CC06CE2A8419C51C4D89E72EC6D5
:101EE000EFF0CFAFB245970700009387E734639BCD
:101EF000F5004C408397C50095C722856244F240A7
:101F0000056169BD97070000938707356394F50065
:101F10000C44CDB79707000093870730E39CF5FC8E
:101F20004C44C9BFF24062440145056182800145CD
:101F30008280411122C42A842E85B285368623A44C
:101F4000018206C68D24FD576317F50093878182B1
:101F50009C4391C31CC0B24022444101828019714C
:101F6000A6DAAE848395E500A2DC86DE328463DBEC
:101F70000500DE2423A0060093F707089DE39307DE
:101F8000004015A0300836C66522B246E34305FE80
:101F90007247BD67F98F7977BA9793B717009CC2DC
:101FA000F9BF930700041CC0F6506654D65401458F
:101FB00009618280DE25011122CC06CE26CA4AC8DC
:101FC000898B2E8489CF930774041CC01CC8854755
:101FD0005CC8F2406244D244424905618280740088
:101FE0003000AA84AD3FA2452A892685EFF0CFB5FF
:101FF00019E98317C40013F7072061FFF19B93E7EA
:1020000027005EA4C9B797F7FFFF938767189CD492
:102010005E2408C008C893E707085EA4A2475CC80E
:10202000B24799CB8315E4002685052A11C55E24A5
:10203000F19B93E717005EA45E243369F900231631
:10204000240141BF93F5F50F2A966314C50001459D
:1020500082801C21E38EB7FE0505C5BF8280828089
:10206000CDC183A7C5FF411122C406C626C2138471
:10207000C5FF63D307003E94AA84CD3793870182BE
:102080009C4399EB2322040023A081822244B24086
:10209000268592444101E1B7637EF4001440330782
:1020A000D4006396E7009843DC43369718C05CC0C1
:1020B000E1BFBA87D84319C3E37DE4FE9443338676
:1020C000D700631F86001040B29694C33386D700B2
:1020D000E31EC7FA10435843B29694C3D8C37DB7E2
:1020E0006375C400B1479CC055B71040B306C40027
:1020F0006316D70014435843B29614C058C0C0C3E7
:1021000071B78280411122C42A842E85B285368619
:1021100023A4018206C67128FD576317F500938733
:1021200081829C4391C31CC0B24022444101828001
:10213000411122C42A842E85B28523A4018206C6B9
:10214000B920FD576317F500938781829C4391C3A3
:102150001CC0B240224441018280411122C42A8421
:102160002E8523A4018206C60D28FD576317F500AE
:10217000938781829C4391C31CC0B2402244410199
:1021800082809307800523A4F1827D558280930786
:10219000800523A4F1827D5582809307800523A4C6
:1021A000F182014582809307800523A4F1827D5549
:1021B00082809307800523A4F1827D5582800000F0
:1021C0003F065B4F666D7D077F6F777C395E797167
:1021D0000000000053797374656D436C6B3A2025E1
:1021E000640D0A004368697049443A202530387804
:1021F0000D0A000043616C696272617474696F6EEC
:1022000056616C75653A2025640D0A0025303464EA
:102210000D0A0000000000000000000000000000A7
:1022200000000000000000000000000000000000AE
:10223000000000000000000000000000000000009E
:10224000000000000000000000000000000000008E
:10225000000000000000000000000000000000007E
:10226000000000000000000000000000000000006E
:1022700000000000232D302B20000000686C4C0073
:1022800065666745464700003031323334353637AE
:102290003839414243444546000000003031323372
:1022A0003435363738396162636465660000000092
:1022B00000000000000000000102030406070809F6
:1022C00000000000010203040102030406070809DC
:1022D00000000000342200005422000014220000FC
:1022E00000000000000000000000000000000000EE
:1022F00000000000000000000000000000000000DE
:1023000000000000000000000000000000000000CD
:1023100000000000000000000000000000000000BD
:1023200000000000000000000000000000000000AD
:1023300000D8B80502040608AC00002020000020E8
:08234000200000200000000055
:00000001FF
