:100000006F00B06E1300000013000000130000002A
:100010001300000013000000130000001300000094
:100020001300000013000000130000001300000084
:08003000130000007300100032
:100038000000000000000000E0030000E4030000EE
:1000480000000000300E000000000000000000006A
:10005800320E0000340E0000000000000000000016
:10006800360E000000000000380E000000000000FE
:100078003A0E00003C0E00003E0E0000400E00004C
:10008800420E0000440E0000460E0000480E00001C
:100098004A0E00004C0E00004E0E0000500E0000EC
:1000A800520E0000540E0000560E0000580E0000BC
:1000B8005A0E00005C0E00005E0E0000600E00008C
:1000C800620E0000640E0000660E0000680E00005C
:1000D8006A0E00006C0E00006E0E0000700E00002C
:1000E800720E0000740E0000760E0000780E0000FC
:1000F8007A0E00007C0E00007E0E0000800E0000CC
:10010800820E0000840E0000860E0000880E00009B
:100118008A0E00008C0E00008E0E0000900E00006B
:10012800920E0000940E0000960E0000980E00003B
:100138009A0E00009C0E00009E0E0000A00E00000B
:10014800A20E0000A40E0000A60E0000A80E0000DB
:10015800AA0E0000AC0E0000AE0E0000B00E0000AB
:10016800B20E0000B40E0000B60E0000B80E00007B
:10017800BA0E0000BC0E0000BE0E0000C00E00004B
:10018800C20E0000C40E0000C60E0000C80E00001B
:10019800CA0E0000CC0E0000CE0E0000D00E0000EB
:1001A800D20E0000D40E0000D60E0000D80E0000BB
:1001B800DA0E0000DC0E0000DE0E0000E00E00008B
:1001C800E20E0000E40E0000E60E0000E80E00005B
:1001D8000000000000000000000000000000000017
:1001E8000000000000000000000000000000000007
:0801F8000000000000000000FF
:10020000B718004093884802B3055E401386F2FF9A
:1002100033C5C502B3E5C502814693870F001307B6
:10022000050063D3B600050798C391078506E3C8A8
:10023000C6FE03AE08000720030087A00300854622
:1002400027A00E0027201F001103072103009103A0
:1002500087A10300910E110F014793870F001385AB
:1002600006000A05AA97F11788439305150053F273
:1002700005D00507D37207D0537301085373531089
:10028000537343185373030027A06E00537303087E
:10029000D3F2300853735310D3722008537353189A
:1002A0005373130027206F00910E110FE343A7FC37
:1002B0000720030087A003008506E3C356F8072143
:1002C000030027A02E0087A1030027203F0083A35F
:1002D0000800B383C3418280397101436EC619A0FF
:1002E000397141536AC866CA62CC5ECE19A03971B1
:1002F00001535AD056D252D44ED64AD826DA22DCEE
:1003000006DE33016140828241114AC026C222C406
:1003100006C68282B24D4101024D924C224CB24B34
:100320004101024B924A224AB24941010249924498
:100330002244B240410182803D432A876373C30255
:100340009377F700BDEFADE5937606FF3D8ABA9649
:100350000CC34CC30CC74CC74107E36BD7FE11E27B
:100360008280B306C3408A06970200009696678093
:10037000A6002307B700A306B7002306B700A3050E
:10038000B7002305B700A304B7002304B700A303F5
:10039000B7002303B700A302B7002302B700A301ED
:1003A000B7002301B700A300B7002300B700828085
:1003B00093F5F50F93968500D58D93960501D58D10
:1003C00061B7939627009702000096968682E78091
:1003D00086FA9680C1171D8F3E96E374C3F8A5B7C1
:1003E0007300203001A0EFF23FF2373701401623AF
:1003F000FD779387F77FF58F1EA337140140914750
:100400002328F480B70702002328F480EF00B0000F
:1004100089472328F4801304048009BFEFF2DFEE3C
:10042000373701401623FD779387F77FF58F1EA39B
:1004300037140140B70704002328F480B7070200EF
:100440002328F480EF00207D89472328F4801304BB
:100450000480E9BDEFF25FEB373701401623856773
:1004600093870780D58FC207C1831EA3371401402D
:1004700091472328F480B70702002328F480EF0077
:10048000607B89472328F4801304048045B5EFF28C
:10049000BFE7B7170140114723A8E78037070200DD
:1004A00023A8E780EF00A07AB707024098431377AC
:1004B00007206DDFD84313670710D8C385BDEFF25F
:1004C000BFE423940182239501823707400193877B
:1004D00001821307070F98C30547D8C3EF00806C4C
:1004E000371702401C4FB706F0FFBD0693E74700E1
:1004F0001CCF371701408327078005451304078069
:10050000F58FB736030093860633D58F2320F78007
:10051000B70710002328F780EF00F06AC1471CC816
:100520002945EF00506A0545D53D13054006EF000B
:1005300090691305B00CDD35130590036D35130577
:10054000C00255350145453513054003693D094550
:10055000593D1305F00CD935014571351305100CC3
:1005600059351305000341351305800E453D13052C
:100570005008953D0145853D13058007AD351305B0
:10058000A00E693D014585350145B13D1305D00EED
:10059000713513054006813D0D45B1354945A135FD
:1005A0001305100889351305700F8D3D13050002E2
:1005B0001D3D1305000C9D35130530022D35130527
:1005C000100CA93D414505351305500C813D13051F
:1005D000E003113D1305800239351305700C3D3DD4
:1005E000130560080935130560030D3D13058004EC
:1005F000DD3B1305A0031D3513055005ED33130531
:10060000100B293D0145C5334D45F13B1305600BEA
:1006100031352145C93B13052008F133130570021C
:10062000D9331305200FDD3B0145753B1305A002AF
:10063000F53301454D3B01457D3301456D331305D0
:10064000F00E55331305B002D13B0145693B01451E
:10065000593B0545493B1305F0037133130560020F
:10066000753B054549331305000E4D3B3D45A53B04
:10067000130510038D3B1305B002B5333145A53387
:1006800039459533214585331305E004A93B13050E
:10069000100F913B13057003B9331D45A933414534
:1006A00099330D45893339453D3B25452D3B014562
:1006B0001D3B1305100E9D33014535333945253358
:1006C000514515330D4505334545313B1D45213B0E
:1006D00013051003093B1305100C31331305800477
:1006E0001933214509333D45FD393145ED391305B0
:1006F0001003D53913056003FD313D45ED31454506
:10070000313B2945EF00304C13059002013B294550
:10071000EF00704B1305C0021133A1471CC839B15B
:10072000EFF29FBE41112A841305A00236C22EC6E5
:1007300032C4ED312285393B22463285213B1305F7
:10074000B002E939B2452E853133924636851933E8
:100750004101E9BEEFF25FBB93870182862341111D
:1007600068871305A002A223FD144D390145C20478
:10077000D531C1802685F9391305B00245317D1484
:1007800001454204C13941802285E9311305C00287
:100790007131C1651305E100FD15D5398D6513056E
:1007A000E100938515C0E531410149B6EFF2DFB5AF
:1007B000AA84130560039D3113840182130580050B
:1007C00091C48547639DF400130580082939B70754
:1007D00040019387070F1CC02322040081BE894774
:1007E000130580026387F4008D476395F4001305B9
:1007F000800ED53EB707F00093870714E9BFEFF2EC
:100800001FAF2394A1822395B18203CF060003CEAC
:10081000160083D80182B6847A9593160E01C182A0
:10082000138481821388A18263D7A800B695231010
:10083000B80023100400930506FEB385C503931F7B
:100840001F00938EC1830143AA8986056361C30794
:10085000835508000A20370902409387F5FF1306E5
:10086000F5FF7A96BE96C2064206C18241824D3D90
:100870001305C00265361305C0034D3683270903EF
:100880001385C18393E707082328F9029C308C2045
:10089000B385F502ED3E832709031A2093F7F7F796
:1008A0002328F9029C20BA971EA06FF09FA7C8408A
:1008B000F6882E95122101456366E5010503FE9E2B
:1008C000890569B7B312A6009393020163D70300A9
:1008D0002390E80005058908C5B7E3CD07FE2390FE
:1008E000F800CDBFEFF2DF9F2394A1822395B18260
:1008F000AA89368A3A8BBE8B938481821384A18223
:10090000294CB54A8305060099E16FF0FFA0130951
:100910001600639485031E2003471A008507BA97C3
:100920001EA003071600CE87631457014A8681472D
:100930009EA0130916004A86F1B7E38E55FF2E8656
:100940008A200E20DE875A87D286553DEDB7EFF21A
:10095000BF9B41110145D52585454145EF00300834
:10096000FD574C00371500407C8423120100EF0036
:10097000F008854537150040EF00F01241016FF097
:10098000FF9AEFF27F95697109456D25DD26EF002D
:100990003021716513050520EF00502683A5818065
:1009A00037750000130505E7EF10A061B777000069
:1009B00087A7C7E5B777000002DA3EFC87A707E6FE
:1009C000B777000082C2BEE43EFE87A747E6B7774E
:1009D0000000BEE687A787E6B7770000BEE087A7DE
:1009E000C7E6BEE8AD37914793820700930C4103F9
:1009F00013830C00130D410493030D00BD47138EA8
:100A00000700930A4105938E0A00130B0109130F87
:100A10000B003C10938F0700EFF08FFE81445A8942
:100A2000D689B77D0000377C0000BD4B138A0300D8
:100A300003A5090011099109EF0090272A86AE86C7
:100A400013850DE8A685EF10C0570325C9FFEF00F9
:100A500030262A86AE8613050CE9A6858504EF109C
:100A60004056E39774FD37750000D285130505EAFB
:100A7000EF102055377500001305C5EAEF106066CA
:100A8000EFF0FFA30D451D330145C1648569D931E0
:100A9000B77D0000FD1493898938668CEA8B014983
:100AA000370A002003250C005104EF0070202ACCE7
:100AB00003A50B002ECEEF00B01F6247F2472AC0FD
:100AC0002EC24A88CA8613860DEB93054006E801BC
:100AD000EF10C061631409024E85EF00D00E01458E
:100AE0009539377600008147268793060A1F13063B
:100AF00086ECBD452945FD331304300293150401EE
:100B00008147268793060A1FF001C1812945D93BF9
:100B100005099147110C910BE316F9F8DA8B568C05
:100B2000014903250C005104EF0090182ACC03A5BD
:100B30000B002ECEEF00D017F24762473776000049
:100B40002AC02EC24A88CA86130606EB93054006C1
:100B5000E801EF10A059A947B367F9029DE34E855C
:100B6000EF0070060145FD36377600008147268785
:100B700093060A1F130686EDBD452945A5331304C8
:100B80003002931504018147268793060A1FF0015E
:100B9000C1812945813B0509BD47110C910BE31229
:100BA000F9F8E5BDB7170240984F85669106558F55
:100BB00098CFD84BB71601400D6613671700D8CBF6
:100BC00083A70680370710037D17F98F3707B0B466
:100BD000D98F23A0F68013074030B73701409AA37E
:100BE000DA231306065113672700DAA337070240FA
:100BF000145B93050703D18E14DB1387C70098C5D8
:100C0000B706002037E700E02320D7109A231367A8
:100C100007049AA38280373701401E27898BF5DFAE
:100C2000420541814AA7373701401E2793F707083D
:100C3000EDFF8280373701401E27898BF5DF4AA7F9
:100C4000373701401E2793F70708EDFF82803737BB
:100C500001401623856793870780D58FC207C1831C
:100C60001EA3B7070240985B799B98DBC8DFCCDBFB
:100C7000985B1367170098DB8280B7170240984390
:100C8000B706FFF841111367170098C3D84337061A
:100C90000200758FD8C39843B706F7FEFD16758F0F
:100CA00098C39843B706FCFFFD16758F98C3D843C9
:100CB000B70681FFFD16758FD8C39843B70600ECC1
:100CC000FD16758F98C33707FF0098C723A6070244
:100CD00002C402C69843C166558F98C3B716024036
:100CE00005679C42F18F3EC6A24785073EC4B247C6
:100CF00081E7A247E397E7FEB71702409C431397AB
:100D0000E7006356070685473EC632478547631EA0
:100D1000F704B7170240D843B706C1FFFD16D8C382
:100D2000D843D8C3D84313670740D8C3D843758F77
:100D3000D8C3D843C166558FD8C39843B7060001BE
:100D4000558F98C3984393166700E3DD06FED8439A
:100D5000B7160240719BD8C3D84313672700D8C386
:100D60002147DC42B18BE39EE7FE4101828002C64F
:100D700069BF371602405C429146B18B1387818070
:100D80006385D700A1466388D702B7177A00938797
:100D900007201CC3B7170240DC43918393F6F7008A
:100DA000B707002093870700B69794231C43B3D757
:100DB000D7001CC3828054425042C167C982BD8A99
:100DC0007D8E9387260085CABD466389D702C146BA
:100DD0006389D702C54581466393B700C1470DE6D5
:100DE0003746024003260680418A15C637167A0028
:100DF000130606202DA08146C947D5B78546B547BD
:100E0000F9BF8146BD47E1BF3716024050429315F6
:100E1000E600E3DD05FC37163D0013060690B387B8
:100E2000C7021CC3A5DA1C438583A5B701A001A096
:100E300001A001A001A001A001A001A001A001A0AA
:100E400001A001A001A001A001A001A001A001A09A
:100E500001A001A001A001A001A001A001A001A08A
:100E600001A001A001A001A001A001A001A001A07A
:100E700001A001A001A001A001A001A001A001A06A
:100E800001A001A001A001A001A001A001A001A05A
:100E900001A001A001A001A001A001A001A001A04A
:100EA00001A001A001A001A001A001A001A001A03A
:100EB00001A001A001A001A001A001A001A001A02A
:100EC00001A001A001A001A001A001A001A001A01A
:100ED00001A001A001A001A001A001A001A001A00A
:100EE00001A001A001A001A001A097010020938111
:100EF00061B0177100201301E110176500001305A0
:100F0000254997F5FF1F9385E50F1386018263FA44
:100F1000C5008322050023A0550011059105E3EAD1
:100F2000C5FE13850182938501C46377B500232034
:100F300005001105E36DB5FEFD42739002BCAD42A4
:100F400073904280B76200009382820873A00230DF
:100F500097F2FFFF9382820E93E232007390523039
:100F6000EFF0BFD1970200009382E2A17390123498
:100F7000730020309C4513F7070113F8F70001C7F1
:100F8000D8413368E8008E2113F7F50F39C31841B3
:100F90008146854E3D4F930F800293028004214E7F
:100FA0003396DE00B3F8C50063111603939826004C
:100FB00033131F011343F3FF3377E300B318180112
:100FC00033E7E800639FF70550C98506E39AC6FD3D
:100FD00018C11307F00F6375B70454412146854EBD
:100FE0003D4F930F800293028004414EB398CE0090
:100FF00033F715016392E802131726000117331324
:10100000EF001343F3FFB376D3003317E800D98E14
:10101000639DF701232A15010506E319C6FD54C196
:101020008280E39457FA10C94DB7E39757FE2328FF
:101030001501DDB723A6A1828280371702405C43E9
:1010400093F7F78F5D8D48C38280371702405C436A
:101050009146B18B6385D700A1466382D706B71747
:101060007A00938707201CC1371602405C4237077D
:101070000020130707019183BD8BBA9794231C416D
:10108000B3D7D7005CC15442A1829D8ABA969422FC
:10109000B3D6D70014C55442AD829D8A3697182323
:1010A000B3D7E7005CC5584239839376370013877E
:1010B000C18036971823B3D7E7021CC982805C43EE
:1010C0005843C166C983758FB7F6FF1F83A6C670E4
:1010D000BD8B89071396160163480600C546014675
:1010E0006392D702C94739A88946638FD702BD46A4
:1010F000638ED702C146638ED702C546014663930D
:10110000D700C1471DEF3747024003270780418BB7
:1011100005C737177A0013070720B307F7021CC16A
:1011200021D61C41858381B701466DBF0546B54771
:10113000D1BF0146BD47F9B737173D0013070790E8
:10114000E9BFB7150240D8559316F700D85563DFAD
:10115000060411833D8B9306170037177A00130797
:1011600007203357D70218C1D455A182BD8A8DE21A
:1011700095463307D702058318C1371702405857E1
:1011800014413D8B050733D7E60218C1184171B7EA
:1011900085456394B600E546E9BFBD456396B60054
:1011A000D1463387E602C9BF8906E5BF3D8B93066A
:1011B000170037177A00130707203357D702F1B704
:1011C00099C5371702401C4F5D8D08CF8280B71735
:1011D0000240984F1345F5FF798D88CF828099C5DD
:1011E000371702405C4F5D8D48CF8280B7170240B1
:1011F000D84F1345F5FF798DC8CF82801E21373730
:101200000140930607C0C207C1836300D504B70637
:101210000040630CD502938606406308D502B716DA
:101220000040138606806302C502938606C0630EE3
:10123000D50013070740630AE500375701409306BE
:1012400007C06304D5006316E500BA2193F7F7F8E9
:10125000D98F37170040630CE50013070740630878
:10126000E50093F7F7CFFA21C207C183D98F1EA1FA
:10127000DE215EB59E211EB5B7370140138707C03A
:10128000630EE50093870740630AF500B7570140F6
:10129000138707C06304E5006314F5009C251EB99D
:1012A00085475EA982801E2189C593E717001EA18C
:1012B0008280C207C183F99BC207C183CDBFEFF211
:1012C000AF841629F577FD17F58FF621DA257971A8
:1012D000D58F1EA95625FD779387379FF58FD62189
:1012E0002A842EC6D58F9625D58FB625D58F5EA597
:1012F0005E29C207C18393F7F7CFD98F5EA968082B
:10130000A933B747014093870780B245631AF404B5
:10131000A25756246547B387E702C206C1869841A3
:1013200063D20604060752244206B3D7E702130726
:1013300040064186B3D6E702B3F7E702920663554B
:1013400006028E0793872703B3D7E70213F77700C8
:10135000B367D700C207C1831EA445616FE01FFDBC
:10136000925745BF0A07C1B7920793872703B3D7A0
:10137000E702BD8BD58FF9BF91C55E250967D98F6F
:101380005EA582805A25F977FD17F98FD5BF93F5B1
:10139000F51F4EA182800A216D8D3335A000828019
:1013A00083A7818037177A0013070720B3D7E70296
:1013B00093F7F70F2389F1821307803EB387E70283
:1013C0002398F1828280B7F700E0D8438146799B69
:1013D000D8C303D701833306A70290CBD4CB98435D
:1013E0001367070198C398431367170298C3D8433C
:1013F000058B75DF9843799B98C38280EFE2DFF01D
:101400002A8411650111854511055D3B9307002074
:101410007C82371501408D473EC44C00E1471305DF
:1014200005803EC6EFF01FB522C837440140B7071C
:1014300008000C08130504803ECC02CA231E0100DC
:10144000BD3D854513050480053F05616FE01FEE36
:10145000EFE2FFE9B7440140AE8932890144938449
:101460000480634524014A856FE0BFEB93050004C7
:101470002685153765DDB3878900838507002685B6
:101480000504C205C1812137E9BF138701811C43CF
:10149000938601C43E95636BD500B7860020938682
:1014A000068063E5A60008C33E858280FD57EDBF38
:1014B000135775011377F70F41119307170022C4D3
:1014C00026C21314950006C693F7E70F25809354A0
:1014D000F50185C793573400130707387604B20720
:1014E0005207B1831395F401D98FC98FB240228579
:1014F00022449244BE854101828005EB39C4228595
:10150000B128A94763C6A7042D47098F9307550142
:101510003357E4003314F4009317C70013079038CF
:10152000098FB1831377F77F5DBF01CC1357340068
:10153000B7070800D98FB2077604B1831307F07F8D
:1015400079BF1307F07F814759BF0147814741BFEA
:10155000130755FF3317E40001447DBFC167637E65
:10156000F5029307F00F1307000263ECA7009767DB
:1015700000009387A797AA9703C507003305A740E4
:10158000828021819767000093874796AA9703C5B9
:10159000070061473305A7408280B7070001636EEB
:1015A000F50061819767000093874794AA9703C568
:1015B000070021473305A7408280418197670000DB
:1015C0009387C792AA9703C5070041473305A740F1
:1015D0008280797122D44AD052CC56CA5AC806D6D3
:1015E00026D24ECE3A8AAE8A32843689428B014761
:1015F00063580600370700803344C7001307D00242
:101600002380E70093F4F8FD930760048D46638818
:10161000F4009307500489466393F4000509DA87C0
:101620009308C100130881004A87D6852286EF00FF
:10163000306593077004AA896396F400137A1A0040
:10164000630A0A0493076004338A29016397F4024A
:1016500003C7090093070003631EF7000146814694
:101660005685A285EF30106F11C585473389274114
:1016700023202B0183270B003E9A01468146568585
:10168000A285EF30306D11E152C613070003B24757
:1016900063E24703B2474257B2502254B3873741FF
:1016A0001CC34E8592540259F249624AD24A424BB7
:1016B000456182809386170036C62380E700C1BF4C
:1016C0002300C500130725009307B00263D6050069
:1016D000B305B0409307D002A300F500A54763DA35
:1016E000B70441119307F100BE882948130330065F
:1016F000B3E605031386F7FF93860603A38FD7FE91
:10170000B3C60503634DB30093860603F917A30F11
:10171000D6FE63E917013305A74041018280B287F5
:10172000B685F9B7850783C6F7FF0507A30FD7FE70
:10173000CDB79307000313074500938505032301E5
:10174000F500A301B5003305A740828019713ACE98
:1017500086DEA2DCA6DA2E84CAD8CED6D2D4B6894A
:10176000DAD0DECEE2CC3289D6D2E6CAEAC8EEC6FC
:10177000AA84EF10F04F832B05005E85EF00101E4A
:10178000032B0400724702DC93760B102A8C034A69
:1017900084011C43F1CA9386470014C39C4308107C
:1017A00098433AD0D8433AD298473AD4DC473ED609
:1017B000EF40704E28C46CC4832CC404176700002B
:1017C0001307C782832A8404032D0700832D470053
:1017D00093971C0085836A86EE865685BE853ECE2D
:1017E000EF40903341EDF2476A86EE865685BE851E
:1017F000EF30D0676354A008014681465685E685E0
:10180000EF30D066635605009307D002A301F404BD
:1018100093077004975A0000938ACA7D63F64701C4
:10182000975A0000938A4A7D137BBBFF8D47232084
:1018300064011CC8014B4E87CA867018A285268594
:10184000F126FD5C631C95157D55F6506654D65403
:101850004659B659265A965A065BF64B664CD64CF4
:10186000464DB64D096182809D07E19B93868700B6
:1018700014C39843DC4338C47CC43DBF5686E68617
:101880005685E685EF40502911CD93077004975A8D
:101890000000938AAA76E3F947F9975A0000938AE1
:1018A0002A7659B75C407D57137DFA0D6393E7089C
:1018B00099475CC0544013670B403C18D6853EC026
:1018C00018C09307310302C2D28813084103668609
:1018D0002685013393077004AA8AD255631BFD0045
:1018E000F55763C5F5005C4063D7B708791A137ADA
:1018F000FA0F9307500663E54705FD155286130559
:1019000004052EDA753B625785462A8BB307A7007C
:101910001CC863C5E6001840058B19C385071CC8A1
:1019200083473103E38907F09307D002A301F4044E
:1019300019B713077004E31FEDF6ADFF854795BF98
:1019400093076006631BFA025C40635BB0000CC83F
:1019500081E71840058B09CF8507AE971CC809A8F9
:1019600089E718408546058B19C39386270014C85C
:101970002CCC014B75B7130A7006E25763C9F5000A
:101980001C400CC8858BEDD793871500C1BF054758
:101990006344B00009470D8FBA97C9B71C4013F7CD
:1019A000074015E314485686CA8526858299E30DBB
:1019B00095E91C40898B63960724F2574844E35607
:1019C000F5E83E8559B513075006637B471928444F
:1019D0006C4401468146EF30F03739E985461756A9
:1019E000000013062662CA8526858299E30E95E5D6
:1019F0005257E2576345F7001C40858BDDDBE286DA
:101A00005E86CA8526858299FD57E30FF5E2014A75
:101A1000930AA4017D5BE257FD17E35CFAF8854663
:101A20005686CA8526858299E30065E3050AE5B7EF
:101A3000D2576346F0068546175600001306865CAB
:101A4000CA8526858299E30195E1D2576257D98FDD
:101A500081E71C40858BB1DFE2865E86CA852685DC
:101A60008299FD57E302F5DE014A130BA401FD5BE9
:101A7000D257B307F040634BFA00E2565686CA8548
:101A800026858299FD57E316F5F27DBB85465A8679
:101A9000CA8526858299E30975DB050AD1BF3C4CCE
:101AA000625A63D347013E8A635A4001D286568602
:101AB000CA8526858299FD57E308F5D8814C130D18
:101AC000A401FD5D09A885466A86CA852685829996
:101AD000E30CB5D7850C032B8405D28763530A002A
:101AE0008147B307FB40E3C0FCFE5257E257634D0A
:101AF000F7021C40858B8DEBE2575257338AE74043
:101B00006344EB00338A6741635B4001D2863386CE
:101B10006A01CA8526858299FD57E307F5D2814A75
:101B2000130BA401FD5B15A0E2865E86CA8526859F
:101B30008299FD57E312F5FC01BB85465A86CA859A
:101B400026858299E30275D1850A5257E257998F0B
:101B5000528763530A000147998FE3C0FAFE91BD93
:101B6000E25605476344D700858BB5C78546568640
:101B7000CA85268582997D5AE30845CDE2865E8630
:101B8000CA8526858299E30145CD28446C440146E7
:101B90008146EF30301C1DC9E25613861A00CA85F3
:101BA000FD1626858299E30145CBDA8613060405E6
:101BB000F9B585465686CA8526858299E30675C994
:101BC000050AE257FD17E346FAFEC5B7014A930A34
:101BD000A401FD5BFDB785465686CA852685829998
:101BE000E31595FD95B185465686CA852685829969
:101BF000E30C65C5050A5C447257998FE345FAFE0C
:101C00006DBB014A930A94017D5BF5B7797156CAA1
:101C10009C49BA8A984522D426D24ECE52CC06D6BA
:101C20004AD05AC85EC6AA892E84B284368A63D343
:101C3000E700BA879CC00347340419C385079CC0DA
:101C40001C4093F7070281C79C4089079CC0032969
:101C5000040013796900631A0900130B9401FD5BFA
:101C60005C449840998F634CF9041C4083463404CB
:101C700093F70702B336D000A5EB13063404D285E0
:101C80004E85829AFD576303F5041C401146984027
:101C9000998B544481446397C700B384E64063D36F
:101CA000040081441C4418486354F700998FBE9483
:101CB000014969047D5B63982405014509A88546AF
:101CC0005A86D2854E85829A631E75017D55B25023
:101CD000225492540259F249624AD24A424BB24BC0
:101CE000456182800509ADBF3307D40013060003A8
:101CF000A301C7040347540493871600A2978906DB
:101D0000A381E7049DBF85462286D2854E85829AAF
:101D1000E30E65FB050945B7797122D426D24AD076
:101D20004ECE06D652CC56CA5AC8B68983C685014D
:101D3000930790063289AA842E8413863504638D16
:101D4000F60263E2D706930780056388F61863ED11
:101D5000D7006381062293073004638FF60A930A43
:101D600024042301D404D1A0930730066386F60A25
:101D700093074006E395F6FE1C40084393F60708D8
:101D800093054500CDC61C410CC363D8070013075B
:101D9000D002B307F040A301E404975600009386F5
:101DA000A626294775A8930700076384F61663E5FE
:101DB000D7029307E006638BF6189307F006E390CB
:101DC000F6FA0C401C4313F8050813854700630816
:101DD000080608C39C4395A893075007E383F6FEC3
:101DE00093078007638BF61293073007E399F6F6A3
:101DF0001C43D04181459386470014C383AA070042
:101E00005685EF10C07801C53305554148C05C4088
:101E10001CC8A301040471A81C43930A24049386DC
:101E200047009C4314C32301F4048547D5B793F6B8
:101E300007041C410CC3B1DAC207C187B9B793F5D7
:101E4000050408C3C1D983D707001307F0066387C9
:101E5000E60E975600009386261B2947A30104042B
:101E60004C400CC463C5050008406D9908C099E357
:101E7000B28A91CDB28AB3F5E702FD1AB69583C551
:101E800005002380BA00B3D5E70263FFE70AA14744
:101E9000631EF7001C40858B91CB58401C4863C7DC
:101EA000E70093070003A38FFAFEFD1A330656419D
:101EB00010C84E87CA867000A2852685813B7D5A50
:101EC000631E450B7D55B250225492540259F2497B
:101ED000624AD24A424B45618280A382D50497561A
:101EE0000000938666120C40084313F805081C4155
:101EF0001105630D080208C313F7150001C793E528
:101F000005020CC04147B9FB0C4093F5F5FD0CC030
:101F1000B1B79C4193E707029CC193078007A302D6
:101F2000F404975600009386660F75BF13F80504F6
:101F300008C3E30308FCC207C1837DBF97560000B6
:101F40009386860C214719BFAE8735B794411C4351
:101F5000CC4913F80608138547006306080008C338
:101F60009C438CC301A808C393F606049C43F5DA8E
:101F70002390B70023280400B28A25BF1448568650
:101F8000CA8526858299E30F45F31C40898B8DE72E
:101F9000B2474844E359F5F23E8535B78546568643
:101FA000CA8526858299E30F65F1050A5C443247AC
:101FB000998FE345FAFEE9BF014A930A94017D5BDC
:101FC000F5B739713EDA2ED232D436D63AD842DC61
:101FD00046DE9387418122CC804326CA06CEAA845E
:101FE00011C41C4C81E72285EF1080310C44541041
:101FF0002686228536C6EF20802DF2406244D244E8
:1020000021618280011126CA4AC806CE22CC4EC662
:1020100052C4AA842E8909C51C4D99E3EF10402EA5
:102020009C4C804481E72685EF10802D9757000057
:102030009387C707631CF402C0408357C400A18B79
:10204000B1C71C48A1C7FD59294A1C448345090052
:10205000FD17B1E91CC463DE07062286A945268563
:102060003922FD576308F502294535A0975700002E
:102070009387C7056314F4008044C1B797570000E5
:102080009387C700E31BF4FAC04445BFA2852685A9
:10209000552255D97D55F2406244D2444249B24955
:1020A000224A056182801CC4050963D70700184CC9
:1020B00063CBE700638945011C401387170018C0F4
:1020C0002380B70059B7228626855520E31F35F7B0
:1020D000D1B71C401387170018C029472380E70099
:1020E00061B793874181AA85884329BF35713ECB6B
:1020F000A6DA36C73AC942CD46CF9387418186DEFC
:10210000A2DC844363DB05009307B0089CC07D55C7
:10211000F6506654D6540D61828093078020231AAE
:10212000F1002AC42ACC814799C19387F5FF3EC8A4
:102130003ECE7401FD572E8426852C00231BF10012
:1021400036C2EF10106AFD576355F5009307B008CB
:102150009CC05DDCA247238007005DBFAA8785077E
:1021600003C7F7FF6DFF3385A7407D1582800111FE
:1021700022CC26CA4AC806CE4EC6AA842E893284EC
:1021800009C51C4D99E3EF10A017975700009387DE
:10219000E7F1631BF406C0401C4C1CC48357C40009
:1021A000A18BD9C31C48C9C31C4808409379F90FB7
:1021B0001379F90F1D8D5C486347F500A2852685CC
:1021C000EF10E00135E51C440505FD171CC41C405B
:1021D0001387170018C0238037015C486389A70064
:1021E0008357C400858B89CBA9476317F900A28563
:1021F0002685EF00D07E0DEDF24062444A85D24440
:102200004249B2490561828097570000938707ECE5
:102210006314F400804449B797570000938707E799
:10222000E31CF4F6C0448DBFA285268521202DDD58
:102230007D59D9B741119387418126C2844322C475
:102240004AC006C62A892E8491C49C4C81E7268503
:10225000EF10000B97570000938747E5631CF402CB
:10226000C0400317C40093170701C18393F687008A
:10227000BDEE93F607019DEEA5472320F9001367F5
:1022800007042316E4007D55B240224492440249DB
:102290004101828097570000938747E36314F4005D
:1022A0008044C1B797570000938747DEE31BF4FAD9
:1022B000C04445BF918B95C74C5891C993074404BE
:1022C0006385F5004A85EF10302B232A04028357DB
:1022D000C4002322040093F7B7FD2316F4001C4822
:1022E0001CC08357C40093E787002316F4001C48E2
:1022F00089EF8357C4001307002093F707286386EC
:10230000E700A2854A85EF10C01D8357C40013F76C
:10231000170005C75C4823240400B307F0401CCC19
:102320001C480145B5F38317C40013F7070829DFDC
:1023300093E707042316F400B9B7898B014791E3AB
:10234000584818C4F1BF011122CC1C49804906CE5F
:1023500026CA4AC84EC652C456C263C187127D14EB
:102360001318240093894501338A09011309450193
:102370004A9883270A00032708008507B354F70209
:102380006366F706C1684E834A8E814E014FFD1881
:1023900011030326C3FF110E337716014182330761
:1023A000970233069602769793560701B377170183
:1023B000B307FF4036968326CEFF935E0601337641
:1023C000160133F71601BA97C18213D70741918ED0
:1023D000BA9613DF0641B3F71701C206D58F232E35
:1023E000FEFEE3776AFA83270800BDCBAA8AEF10C6
:1023F000E0766349050441668504CA8501457D167A
:10240000910903A8C9FF98419105B376C800158DBD
:10241000B376C700AA96935707011358080113D73C
:102420000641B3870741BA9713D50741F18EC2071A
:10243000D58F23AEF5FEE3753AFD93172400CA97B6
:1024400098431DC72685F2406244D2444249B249AE
:10245000224A924A056182808327080089E77D1419
:102460007118E36B09FF00C951B7984309E77D1460
:10247000F117E36CF9FE23A88A00E9B70145E1B73B
:1024800075713ED85C5122C526C34AC1CEDED2DC6E
:10249000E2D406C7D6DADAD8DED6E6D2EAD0EECE75
:1024A00036C23AC646CAAA842E843289C2892E8A86
:1024B000328C89EF4145EF10C00CC8D023220500B3
:1024C000232405002320050023260500DC508C432F
:1024D00089CDD84385472685B397E7009CC5D8C1E9
:1024E000EF106020DC5023A00700635309048547E8
:1024F000131C190023A0F900135C1C00B707F07F20
:102500003377FC006314F70642578967320C9387D0
:10251000F770135CCC001CC3336C8C00E3050C32E9
:10252000D24791EB97570000938707B63EC039A872
:1025300023A00900E1B7975700009387E7B43EC096
:1025400097570000938777B452471CC3BA402A4478
:1025500002459A440A49F659665AD65A465BB65B12
:10256000265C965C065DF64D496182800146814697
:102570002285E28522CE62D4EF20D07D05E142574C
:1025800085471CC3975700009387C7A73EC0D24713
:10259000D5DF975700009387F7A67DB7B800F40002
:1025A0006286A285268513594C01EF10406D137980
:1025B000F97FAA89A64A630D0910A257724513092B
:1025C00019C09395C700B181B707F03FDD8D02DCDC
:1025D00097570000938707A69043D443EF30E05FFE
:1025E00097570000938787A59043D443EF3060133B
:1025F00097570000938707A59043D443EF204027C7
:102600002A8B4A85AE8BEF30705B9757000093871B
:10261000E7A39043D443EF30C0102A86AE865A8594
:10262000DE85EF20E0242A8BAE8BEF30B0522A8477
:10263000014681465A85DE85EF304003635B050025
:102640002285EF30B0575A86DE86EF20B07011C178
:102650007D140547D9473AD663E387021317340040
:1026600097570000938707ABBA979043D4437245BE
:10267000A255EF20B07F635305007D1402D6338945
:102680002A41930BF9FF014B63D60B00054B330B2B
:102690002B41814B634E0406A29B22CC814A1247F8
:1026A000A54763E5E7149547854C63D6E700930794
:1026B000C7FF3EC2814C12478D47630EF71063CFB0
:1026C000E704894702C8630DF70685473EC88DA019
:1026D00036499307000256991307294363D5E70249
:1026E00013050004198D930729413315AC003354A9
:1026F000F400418DEF30B053B70710FEBE9585470B
:102700007D193EDCF1B53385E7403315A400DDB714
:10271000330B8B40B30A804002CC51B7124791472C
:10272000630EF70005473AC8124795476306F70A54
:10273000FD573EC4FD5DC94702C619A885473EC87E
:10274000B2476348F00A854705473EC4854D3AC6FF
:1027500003A9440211472322090093064701832558
:10276000490063FCD7082685EF00706FDC502320FA
:10277000A9009C433EC0B94763E6B71D63840C1CA7
:10278000635E800A9377F40013973700935C4440AC
:102790009757000093870798BA9793F60C019843D0
:1027A0000949DC4385C697560000938626949052CB
:1027B0007245D452A2553AD03ED2EF20607E0257E5
:1027C000925793FCFC002A8A2E8C0D49175D00005D
:1027D000130DCD9189A802C8B247A2973EC4938D2C
:1027E0001700EE87E346B0F785479DB7854C02C2D8
:1027F000E9BDB2473EC4BE8DA1BF85052322B90005
:102800000607A1BF93F61C0081CE03260D00832688
:102810004D003A85BE85EF20D07005092A87AE8726
:1028200093DC1C40210DE39F0CFC3A86BE8652854A
:10283000E285EF20E0762A8A2E8C81A0094915CC0A
:10284000B30C804093F7FC001397370097570000B4
:102850009387478CBA979043D4437245A25593DC33
:102860004C40175D0000130D6D88EF20906B2A8A95
:102870002E8C8147639C0C12DDFFB25763870714CF
:10288000174700001307077D104354435285E28524
:1028900052D0EF20B05D635A0512638B0D12A24730
:1028A0006350F00A174700001307477B8257104315
:1028B00054433E85E285EF20D066A247130DF4FF16
:1028C0002A8A2E8C050962874A853EDE52DABA8C46
:1028D0003AD0EF30B02E525802573709C0FC42862A
:1028E000BA86EF201064974600009386A677904240
:1028F000D442528CEF10D077F2572A8A2E99E1EF0A
:102900009747000093878776525802579043D443E5
:102910004285BA85EF30602C5286CA862A8CAE8CEE
:10292000EF20F049634AA054B7070080B3C72701DE
:102930005286BE866285E685EF205053634B055272
:10294000724A225CB64763C7073039476344873011
:1029500013173400974700009387C77BBA9703ABE0
:10296000070083AB4700B24763D207206340B02122
:1029700063910D50974700009387476F9043D4436E
:102980005A85DE85EF20F0595286E286EF203043EB
:10299000814A01496357054A824702470504138A61
:1029A0001700930710032300F70045A113F71C003D
:1029B00009CB03260D0083264D000509EF20705634
:1029C000854793DC1C40210D75B5228DEE87E5BD52
:1029D000228D8147CDBD9386F7FF1396360097462B
:1029E000000093862673B2968842CC428246B69700
:1029F0003EDAC247E9C3974700009387A7672A8654
:102A0000AE868843CC434ADE52D0EF20605902584C
:102A1000725717490000130969644286BA86EF307D
:102A2000C01B024A2AD02ED2E6856285EF30901272
:102A30002ADEEF30B0182A86AE866285E685EF3052
:102A4000C019F2572A8CAE8C2A86AE860255925552
:102A5000050A93870703A30FFAFEEF205036634859
:102A6000A00E974700009387E75E8843CC436286B9
:102A7000E686EF3080162A86AE8602559255EF2004
:102A800010346342A018D257E30CFAEA0326090077
:102A90008326490002559255EF20B04803260900CD
:102AA000832649002AD02ED26285E685EF20704722
:102AB0002A8CAE8C95BF5286CA86EF209046525A19
:102AC00002492AD02ED2E6856285EF30B0082ADE90
:102AD000EF30D00E2A86AE866285E685EF30E00FB5
:102AE0007257D257050913070703A30FE9FE2A8C73
:102AF000AE8C6312F906174900001309A957032683
:102B000009008326490002559255EF1070562A8617
:102B1000AE866285E685EF20902A6346A00E0256B7
:102B200092560325090083254900EF30000B2A86C1
:102B3000AE866285E685EF20703393070003E3518C
:102B400005E00347FAFF9306FAFF6304F7006A847F
:102B500059A8368AFDB797470000938727509043BE
:102B6000D443EF20103C2A8CAE8CB1BFE287BE8CE0
:102B70008247528C974A0000938A4A4E1389170065
:102B8000BE9D5A86DE866285E685EF206041EF3085
:102B9000607C2A8DEF3090025A86DE86EF207038F6
:102BA0002A86AE866285E685EF30200393070D0303
:102BB000A30FF9FE2A86AE864A8A639E2D07EF1080
:102BC000304B5A86DE862A8CAE8CEF20501F634B2A
:102BD000A0025A86DE866285E685EF20B01701E501
:102BE00093771D0085E3CE852685EF00D02FC25751
:102BF00023000A00050480C3D247E389079423A079
:102C00004701A9B2228D130790038346FAFF930769
:102C1000FAFF639AE6008246639DF60013070003FD
:102C2000050D2380E60003C7070005072380E700A2
:102C300039BF3E8AD9BF03A60A0083A64A00050908
:102C4000EF20302E014681462A8CAE8CEF2090106A
:102C50000DF951BF4247630007109246054763458F
:102C6000D70C62579387374309E7264793076003DA
:102C7000998F568DDA8C854526853E9BBE9BEF004D
:102C8000303F2A89635E9001635C7001E68763D3FD
:102C90009B01DE87330BFB40B38CFC40B38BFB40C6
:102CA00063800A04C247C5CF6354A003CA856A86FD
:102CB0002685EF00F0514E86AA852A892685EF00E9
:102CC000F03C2ACECE852685EF00F021F247BE8962
:102CD0003386AA4111C6CE852685EF00704FAA899A
:102CE00085452685EF00D038E247AA8A635BF00667
:102CF0003E86AA852685EF00B04D12478547AA8AF1
:102D0000014D63C8E706014D63120A069317CC0014
:102D1000528DA9EFB705F07F337CBC0063080C042B
:102D2000050B850B054D99A0138DFDFF63CAAA0104
:102D3000338DAA4163DE0D00B30CBB41814725BF33
:102D4000E247B30A5D41D6973ECCEA8A014DDDB732
:102D5000DA8CEE870DB7568DDA8C014925B7568689
:102D60009DBF12478547014DE3DFE7F8E247054580
:102D700089CF83A70A018D078A07D697C843EF003A
:102D80003024930700023385A7405E957D8951C1A9
:102D900093070002898F1147635AF706F14733857D
:102DA000A7402A9BAA9CAA9B63586001CE855A869D
:102DB0002685EF00D04DAA8963587001D6855E86BE
:102DC0002685EF00D04CAA8AB257B1C7D6854E856A
:102DD000EF00D05863510504CE85814629462685EB
:102DE000EF00B014C2477D14AA89638C0726CA85F8
:102DF000814629462685EF005013A2472A8963455C
:102E0000F0081247894763D1E70829A8E38EE7F85D
:102E10003E85710579B76345B0071247894763D18D
:102E2000E7066EC4A24791EFD685814615462685F2
:102E3000EF00B00FAA8AAA854E85EF003052E34D0D
:102E4000A0B4B247024A13C4F7FF014BD6852685CA
:102E5000EF007009E30909D863080B0063062B0132
:102E6000DA852685EF003008CA852685EF00B00791
:102E70009DBB814A0149F1B76A84814A014929BE53
:102E8000C2476EC46386071E63589001CA85668672
:102E90002685EF00D03F2A894A8563060D028325E7
:102EA00049002685EF00A07B032609012A8B9305A4
:102EB000C90009060A063105EF00006F0546DA85EC
:102EC0002685EF00D03C824722474A8B138C17009F
:102ED000BA973EC693771A002A893EC4D6854E8596
:102EE000EFF06FC6DA852A8D930D05034E85EF004E
:102EF000F0464A86AA8BD6852685EF005049504574
:102F0000930CFCFF2A8A054711E6AA854E85EF003F
:102F1000F0442A87D28526853AC8EF00C07C9247C4
:102F20004247628AB3E6E700A247DD8E81EE1307CF
:102F300090036388ED0463547001930D1D03238097
:102F4000BC0129B763CA0B009247B3EB7701A247D4
:102F5000B3EBFB0063950B04E353E0FECE8505461F
:102F60002685EF00D032D685AA89EF00303F634630
:102F7000A00071F513F71D0079D313079003E39EAA
:102F8000EDFA930790032380FC0093069003834798
:102F9000FAFF1307FAFF638CD708850745A0635B28
:102FA000E00013079003E38EEDFC93871D00238060
:102FB000FC0069BDB247A30FBCFF63818705CE85C6
:102FC000814629462685EF004076AA898146294612
:102FD000DA85268563182B01EF0020752A8B2A8954
:102FE000050CEDBDEF006074CA852A8B8146294629
:102FF0002685EF0080732A89E5B7014BCE8505460B
:103000002685EF00D028D685AA89EF003035E34E1B
:10301000A0F601E593F71D00ADFB930700030347FE
:10302000FAFF9306FAFFE313F7E2368ACDBF824731
:103030006399E70002470504930710032300F70094
:1030400031B53A8AA9B752479747000093870703DB
:103050003EC0974700009387E702631707CE6FF0E3
:10306000EFCEA2476346F00012478947E3CCE7DA88
:10307000024AD6854E85EFF00FAD8247050A930DC3
:1030800005033307FA40A247A30FBAFFE357F7F649
:10309000CE85814629462685EF002069AA89D1BFC1
:1030A00083D7C500011122CC26CA06CE4AC84EC617
:1030B00013F78700AA842E8479EFD841634DE0008E
:1030C000B841634AE0000145F2406244D2444249BB
:1030D000B2490561828058547DD703A904009396B4
:1030E000370123A0040063DE060670488357C4003E
:1030F000918B99C75C401D8E5C5899C33C401D8ED6
:103100005C540C50814626858297FD570357C400B6
:10311000631DF5009440F54763E9D706B7074020E3
:103120008507B3D7D700858BADC31C482322040085
:103130001CC09317370163D80700FD576314F500CF
:103140009C4091E368C84C5823A02401ADDD93074F
:1031500044046385F5002685EF001042232A04020B
:103160009DB70C500146854626850297FD572A8655
:10317000E31EF5F69C40BDDB75476385E7005947C4
:103180006394E70423A024013DBF136707042316BB
:10319000E4007D5515BF83A90501E38609F203A963
:1031A00005008D8B23A0350133093941014791E397
:1031B000D84918C4E35920F11C540C50CA864E86D5
:1031C000268582976349A0008357C40093E70704CC
:1031D0002316F4007DBFAA993309A940E1BF9C4999
:1031E000A5C3011122CC06CE2A8411C51C4D81E74E
:1031F0002EC63922B24597470000938727EB639C80
:10320000F5004C408397C5009DC722856244F2407B
:1032100005616FF0FFE897470000938727EB639401
:10322000F5000C44C5B797470000938727E6E39B5A
:10323000F5FC4C44C1BFF240624401450561828007
:1032400001458280411122C406C62A842316B50096
:103250002317C50023200500232205002324050091
:103260002322050623280500232A0500232C050018
:10327000214681451305C505EFD00F8C9717000037
:103280009387C7315CD097170000938727341CD4ED
:1032900097170000938767385CD4971700009387CF
:1032A000273B00D01CD8B2402244410182809705C0
:1032B0000000938505F3B9A2411126C213068006CA
:1032C0009384F5FFB384C4024AC02E8922C406C683
:1032D00093854407EF00D0342A8401CD23200500D4
:1032E00023222501310508C4138684068145EFD0C9
:1032F000AF842285B2402244924402494101828037
:103300001C4DADE3411106C622C497070000938708
:1033100047FA1CD5938781819C43232405042326E7
:103320000504232805046314F50085471CCD2A8471
:103330001D2848C02285052808C422852D2048C4A0
:10334000484001469145FD3D08440546A545DD3D03
:1033500048440946C945FD3585471CCCB240224446
:1033600041018280828041119387818126C28443FA
:103370004AC006C69C4C22C42A8999E3268549374F
:10338000938484048044DC40FD1763D607009C408E
:10339000B9CF8440C5BF0317C40039E7C17785079B
:1033A00023220406232004002322040023240400F3
:1033B0005CC423280400232A0400232C0400214693
:1033C00081451305C405EFC03FF7232A0402232CCF
:1033D000040223240404232604042285B240224448
:1033E00092440249410182801304840671BF9145D1
:1033F0004A85EFF07FEC88C049FDB1472320F900F2
:103400000144E1BF797122D44AD052CC56CA5AC87D
:103410005EC606D626D24ECE2A8AAE8A130485040C
:103420000149054BFD5B09ECB25022544A85925488
:103430000259F249624AD24A424BB24B45618280FC
:10344000044483294400FD1963D409000040E1BF0E
:1034500083D7C400637BFB008397E4006387770115
:10346000A6855285829A3369A90093848406E1BFB8
:10347000938741819C43885309E517D5FF1F1305A6
:1034800065C01305050F82801971A6DAAE84839595
:10349000E500A2DC86DE328463DC050083D7C4004D
:1034A00023A0060093F7070885E7930700401DA0B7
:1034B000300836C6EF10601FB246E34105FE724782
:1034C000BD67F98F7977BA9793B717009CC2F1BFA0
:1034D000930700041CC0F6506654D6540145096198
:1034E000828083D7C500011122CC06CE26CA4AC8E5
:1034F000898B2E8489CF930774041CC01CC8854710
:103500005CC8F2406244D244424905618280740042
:103510003000AA84953FA2452A892685EF005010E5
:1035200001ED8317C40013F7072061FFF19B93E7B8
:1035300027002316F400C1B797070000938767D7C9
:103540009CD48357C40008C008C893E70708231613
:10355000F400A2475CC8B24791CF8315E4002685EA
:10356000EF10601701C98357C400F19B93E7170060
:103570002316F4008357C4003369F900231624018D
:1035800049B793874181AA8588436F00700993F5F5
:10359000F50F2A966314C500014582808347050014
:1035A000E38DB7FE0505FDB7B3C7A5008D8B3307C7
:1035B000C50081E78D4763EEC700AA876370E50AFF
:1035C00083C6050085078505A38FD7FEE3EAE7FEDE
:1035D000828093763500AA8791CA83C60500850745
:1035E0008505A38FD7FE93F63700FDB79376C7FF07
:1035F000138606FE63F0C70683A3050083A2450079
:1036000083AF850003AFC50083AE050103AE45015E
:1036100003A3850183A8C5019385450223A07700F4
:1036200003A8C5FF23A2570023A4F70123A6E7019F
:1036300023A8D70123AAC70123AC670023AE170133
:103640009387470223AE07FF75B790419107910515
:1036500023AEC7FEE3EBD7FEE3E4E7F682805C51DE
:10366000411122C44AC006C626C22A842E8989EF87
:103670004145EFF01FF148D0232205002324050027
:1036800023200500232605004450DC4495C75850EC
:10369000931729005847BA9788431DED8544B39482
:1036A0002401138654000A06854522855D2511CD27
:1036B0002322250104C51DA0130610029145228571
:1036C000492D5C50C8C4DC47F9F30145B24022449F
:1036D0009244024941018280184198C32328050081
:1036E00023260500E5B75C51011122CC06CE2A84C1
:1036F00099EF41452EC6EFF0DFE8B24548D02322CE
:10370000050023240500232005002326050091C978
:103710005450DC4113972700DC46BA97984398C170
:103720008CC3F24062440561828079714ECEAA89D1
:10373000416522D426D22E84844906D64AD0D105AA
:1037400001487D159C419105050833F7A700330713
:10375000C702C183B387C702369793560701698FA3
:10376000B69793D60701C207BA9723AEF5FEE34B8F
:1037700098FC9DCE1C4463C6F4024C404E8536C670
:103780008505EFF0DFED10489305C4002A8909068E
:103790000A063105EFF05FE1A2854E85A937B246F2
:1037A0004A84938744008A07A297D4C3850404C837
:1037B0002285B250225492540259F24945618280C6
:1037C0004177698FAA87014519E3C2074145370749
:1037D00000FF7D8F19E32105A207370700F07D8FD9
:1037E00019E311059207370700C07D8F19E309051A
:1037F0008A0763C90700139717000505634407008C
:103800001305000282801C4113F777000DC393F665
:103810001700014799E613F7270011C785831CC1DC
:1038200005473A85828089831CC10947DDBF93968D
:103830000701C182014799E2C183414793F6F70F1F
:1038400099E22107A18393F6F70099E2110791838A
:1038500093F6370099E20907898393F6170081E60A
:103860008583050799C31CC16DBF1307000255BFAF
:10387000411122C42E84854506C6EFF05FDE40C9A3
:10388000B2402244054718C94101828098491C4A28
:10389000797126D206D622D44AD04ECEAE84635455
:1038A000F700B2842E8683A90401032906019C44F3
:1038B000CC403384290163D38700850532C6EFF0FD
:1038C0001FDA324613084501131324004293C287BE
:1038D00063ED670293854401939829005106131EF6
:1038E0002900C166AE98329EFD166364C603635616
:1038F0008000711383270300F1CB00C9B25022541A
:1039000092540259F2494561828023A00700910731
:10391000C1B7832F0600B3FFDF00638A0F04428F15
:10392000AE82814403A7020083230F00110FB37EF0
:10393000D700B38EFE03B3F7D30093D303019102F4
:10394000BE9E93570701B387F703A69E13D70E01B8
:10395000B3FEDE009E97BA9793D40701C207B3E780
:10396000D701232EFFFEE3EF12FB23209F0083529B
:103970002600638A020483270800C28E2E8F814F9F
:1039800003270F0083D32E00F58F758F330757025F
:10399000910E110F1E977E97931F0701B3E7FF004B
:1039A00023AEFEFE8357EFFF83AF0E004183B38744
:1039B0005702B3FFDF00FE97BA9793DF0701E36179
:1039C0001FFD23A0FE001106110805B77D1405B7E1
:1039D000011126CA4AC84EC606CE22CC52C49377DD
:1039E00036002A89B284AE8989CFFD1717370000C7
:1039F0001307C77E8A07BA9790438146EFF0FFD23C
:103A0000AA898984A5CC8327490291EF4145EFF02B
:103A10005FB72322A90223220500232405002320C7
:103A2000050023260500032A490203248A0019E819
:103A3000930510274A85EFF0BFE32324AA002A84C8
:103A40002320050093F7140081CFCE8522864A8576
:103A5000EFF0DFE32A8ACE854A85EFF0DFC8D2890E
:103A6000858489CC084009E92286A2854A85EFF041
:103A7000FFE108C0232005002A84E9B7F240624430
:103A80004E85D2444249B249224A05618280797109
:103A900026D2AE844ECE83A9040122D4CC41135445
:103AA00056409C44A2994AD056CA06D652CCAA8AFD
:103AB0001389190063C42709568532C6EFF03FBA4F
:103AC0003246930745012A8ABE8601479106634A1A
:103AD000870663530400014494480A04338787002F
:103AE0008A06938744017D8ABE9625C21308000288
:103AF0003308C84081458843110791073315C50035
:103B0000C98D232EB7FE83A5C7FFB3D50501E3E416
:103B1000D7FE0CC399C1138929007D1923282A01D6
:103B20005685A685EFF03FBCB25022545285925480
:103B30000259F249624AD24A456182808505860768
:103B400095BF23AE06FE050751B7910703A6C7FF31
:103B50001107232EC7FEE3EAD7FEC1B71C499849D7
:103B6000998F8DE30A075105D105B306E500BA9593
:103B7000F116F115904298416308E600FD57636322
:103B8000E60085473E858280E364D5FEE5BF0111EE
:103B900026CAAE844EC6B285AA89268522CC06CE18
:103BA0004AC83284653F05E181454E85EFF03FAB61
:103BB00085471CC9232A0500F2406244D244424989
:103BC000B24905618280054963460500A287014923
:103BD0002684BE844C404E85EFF07FA80323040169
:103BE00083A8040113064401131E23001388440113
:103BF0008A08C16E23262501329EC298930645018C
:103C0000014FFD1E1842832F08009106B375D7019E
:103C1000B3F7DF01FA959D8D93DF0F0193570701ED
:103C2000B387F74113D70541BA9713DF0741B3F5BF
:103C3000D501C207CD8F110823AEF6FE1106E3634E
:103C400018FDC165FD156368C601F1169C4295C754
:103C50002328650095B71C429106110633F7B7007B
:103C60007A9713580741C183C29713DF07416D8FBD
:103C7000C207D98F23AEF6FEF9B77D13F9B7797174
:103C800022D42E84854526D24AD0B2844ECE52CC40
:103C90003A8906D6368AEFF09F9C370710009307C3
:103CA000F7FFE58FD18093F4F47FAA89B5E03EC693
:103CB0002DC4280022C4EFF01FB5A24621CD324703
:103CC00093070002898FB317F700D58F3357A700EA
:103CD00023AAF9003AC6324423AC89003334800069
:103CE000050423A88900B9C49384D4BCAA9493077B
:103CF000500323209A003385A7402320A900B25007
:103D000022544E8592540259F249624A456182809A
:103D1000D98F71BF23AAD9007DBF6800EFF0BFAE75
:103D2000B24713050502054423AAF900854723A8D5
:103D3000F90055BF931724001305E5BCCE97232047
:103D4000AA00884B1604EFF0BFA7098C2320890036
:103D50007DB73386C502011122CC06CEB28532C6AC
:103D6000C1202A8409C532468145EFC0EFDC228597
:103D7000F240624405618280DDC183A7C5FF411125
:103D800022C406C626C21384C5FF63D307003E942F
:103D9000AA84EF001022938741839C4381EF232262
:103DA000040023AA81822244B24026859244410124
:103DB0006F005020637EF40014403307D4006396F4
:103DC000E7009843DC43369718C05CC0D9BFBA8778
:103DD000D84319C3E37DE4FE94433386D700631FC1
:103DE00086001040B29694C33386D700E31DC7FA0D
:103DF00010435843B29694C3D8C375B76375C400D3
:103E0000B1479CC04DB71040B306C4006316D7003D
:103E100014435843B29614C058C0C0C369B78280D7
:103E2000011126CA93843500F19806CE22CC4AC8E7
:103E30004EC6A104B14763F3F404B14463E2B40491
:103E40002A89EF0010179387418398433A8439E019
:103E5000938781839C4391E781454A85092F23AC51
:103E6000A182A6854A852127FD5963193507B147E7
:103E70002320F9004A85EF00F01329A0E3D004FCC9
:103E8000B1471CC10145F2406244D2444249B249A3
:103E9000056182801C40858F63CF0702AD4663F6C3
:103EA000F6001CC03E9404C031A05C40631387023E
:103EB00023AAF1824A85EF00F00F1305B40093079F
:103EC000440061993307F5405DDF3A94898F1CC047
:103ED0005DBF5CC3C5B72287404095BF1304350062
:103EE0007198E30285FCB305A4404A854925E31C8B
:103EF00035FBB5BF01114AC803A9850022CC52C4C5
:103F00005AC006CE26CA4EC656C22E84328B368A78
:103F100063EE260983D7C50013F7074851C704404D
:103F20008C495848AA8AB389B4408D44B384E402CA
:103F30000947B3C4E402138716004E9763F3E40005
:103F4000BA8493F70740D9C3A6855685EFF05FED95
:103F50002A890DE5B14723A0FA008357C4007D5597
:103F600093E707042316F400F2406244D244424926
:103F7000B249224A924A024B056182800C484E8621
:103F8000EFF08FE28357C40093F7F7B793E7070882
:103F90002316F4002328240144C84E99B3843441E5
:103FA0002320240104C4528963732A0152890840E2
:103FB0004A86DA85EF00407B1C440145B3872741E0
:103FC0001CC41C403E992320240179BF26865685B7
:103FD000EF00607E2A895DFD0C485685EFF0DFD941
:103FE00095BF83D7C500717126D34AD14ECF06D76E
:103FF00022D552CD56CB5AC95EC762C566C393F768
:104000000708AA892E89B284B9C39C49A9E39305FC
:10401000000436C6EFF0DFE02320A9002328A90022
:10402000B24615E1B14723A0F9007D55BA502A5494
:104030009A540A59FA496A4ADA4A4A4BBA4B2A4C04
:104040009A4C4D61828093070004232AF90093075C
:104050000002A30CF1029307000302DA230DF10220
:1040600036CE930B5002973A0000938AEA17054C1C
:10407000294B26848347040099C3639D7709B30CB9
:104080009440638E0C00E6862686CA854E85EFF046
:104090007FE6FD576302F51AD256E69636DA834775
:1040A0000400638B0718FD579304140002D002D656
:1040B0003ED202D4A301010682DC83C5040015466A
:1040C0005685EFF0CFCC13841400825731E513F7F7
:1040D000070109C713070002A301E10613F78700D0
:1040E00009C71307B002A301E10683C60400130742
:1040F000A002638BE602B257268481462546034719
:10410000040093051400130707FD6374E6068DC6CB
:104110003ED61DA00504B9BF330555413315AC008B
:10412000C98F3ED0A28451BF7247930647001843FF
:1041300036CE634907023AD6034704009307E002EC
:10414000631FF704034714009307A002631BF702E1
:10415000F2470904138747009C433ACE63C1070224
:104160003ED235A83307E04093E727003AD63ED049
:10417000E1B7B387670385462E84BA9749B7FD57E1
:10418000C5B7050402D2814681472546034704008E
:1041900093051400130707FD6378E606F1F28345E3
:1041A00004000D461735000013058504EFF02FBEFF
:1041B00011CD973700009387A7031D8D9307000447
:1041C000B397A700025505045D8D2AD083450400EE
:1041D0001946173500001305E50193041400230C5C
:1041E000B102EFF0CFBA35C197D7FFFF938747569B
:1041F00095E70257F2471377071009CF91073ECE94
:10420000D257D2973EDAB5B5B387670385462E8479
:10421000BA97ADBF9D07E19BA107D5B77808970670
:104220000000938666CD4A860C104E85EFD00FD2E3
:10423000FD572A8AE316F5FC8357C9007D5593F78D
:104240000704E39507DE5255D5B3780897060000BA
:10425000938686CA4A860C104E85EFD0FFABC9BF45
:104260001C46FD171CC663DA0700184E63C5E7003D
:10427000A9476394F5006FD09FEF1C422E851387EA
:10428000170018C22380B7008280011122CC26CAF1
:104290004AC84EC652C406CE2A89AE893284B304B7
:1042A000D6007D5A63149400014511A8834504008B
:1042B0004E864A85EFF0DFFA0504E31545FFF2402C
:1042C0006244D2444249B249224A05618280357132
:1042D00022CD26CB4AC94EC706CF52C556C35AC1B6
:1042E000DEDEE2DCE6DAAA89AE843289368409C5EC
:1042F0001C4D99E3EFF0CF8097370000938707DBE1
:10430000639DF40C83A4490083D7C400A18BE5CB43
:104310009C48F5C793070002A304F102930700032A
:1043200002D22305F10222C6930B5002973A0000F5
:10433000938A8AEB054C294B4A848347040099C32E
:104340006392770FB30C2441638E0C00E6864A8695
:10435000A6854E85EFF07FF3FD576307F51E925655
:10436000E69636D2834704006380071EFD57130983
:10437000140002C802CE3ECA02CCA309010482D4B2
:104380008345090015465685EFF06FA01304190008
:10439000C24759E913F7070109C713070002A30928
:1043A000E10413F7870009C71307B002A309E1046A
:1043B000834609001307A0026380E608F2474A8497
:1043C000814625460347040093051400130707FDA3
:1043D0006379E60AB5CA3ECE85A897370000938771
:1043E000E7CE6395F40083A4890039BF97370000B6
:1043F0009387C7C9E39AF4F083A4C90031B7A685AF
:104400004E85EFD03FE319D57D55FA406A44DA4432
:104410004A49BA492A4A9A4A0A4BF65B665CD65C14
:104420000D618280050411BF330555413315AC0081
:10443000C98F3EC82289A9B732479306470018435F
:1044400036C6634907023ACE034704009307E002E9
:10445000631FF704034714009307A002631BF702CE
:10446000B2470904138747009C433AC663C1070259
:104470003ECA35A83307E04093E727003ACE3EC84E
:10448000E1B7B387670385462E84BA9725BFFD57EA
:10449000C5B7050402CA8146814725460347040083
:1044A00093051400130707FD6378E606F1F28345D0
:1044B00004000D4617350000130585D3EFF02F8D4E
:1044C00011CD973700009387A7D21D8D9307000465
:1044D000B397A700424505045D8D2AC883450400B3
:1044E0001946173500001305E5D0130914002304FD
:1044F000B102EFF0CF892DC197D7FFFF93874725F2
:1045000095E74247B2471377071009CF91073EC698
:104510009257D2973ED20DB5B387670385462E8456
:10452000BA97ADBF9D07E19BA107D5B77800970665
:1045300000009386C6D526860C084E85EFD00FA1C5
:10454000FD572A8AE316F5FC83D7C40093F70704C6
:10455000E39C07EA125555BD780097060000938644
:1045600006D326860C084E85EFD00FFBD1BF411134
:1045700022C42A842E8523AE01C206C6EFC0FFF0F6
:10458000FD576317F5009387C1C39C4391C31CC0BB
:10459000B240224441018280411122C42E8483957D
:1045A000E50006C6AD24634905007C48AA977CC88F
:1045B000B2402244410182808357C4007D777D1739
:1045C000F98F2316F400EDB783D7C500011122CC73
:1045D00026CA4AC84EC606CE93F70710AA842E8470
:1045E0003289B68991C78395E50089460146092A33
:1045F0008357C4007D777D17F98F2316F400831548
:10460000E4006244F240CE864A86B2494249268599
:10461000D24405613DA8411122C42E848395E50052
:1046200006C6F928FD570357C400631BF500FD7744
:10463000FD17F98F2316F400B24022444101828015
:104640008567D98F2316F40068C8FDB78395E50008
:1046500005A8411122C42A842E85B285368623AE50
:1046600001C206C6EFC0DFDEFD576317F500938772
:10467000C1C39C4391C31CC0B2402244410182800B
:10468000411122C42A842E8523AE01C206C6EF2022
:104690006002FD576317F5009387C1C39C4391C324
:1046A0001CC0B240224441018280411122C42A84AC
:1046B0002E85B28523AE01C206C6EF206000FD57ED
:1046C0006317F5009387C1C39C4391C31CC0B240DC
:1046D000224441018280411122C42A842E8523AEC6
:1046E00001C206C6EF10907EFD576317F500938751
:1046F000C1C39C4391C31CC0B2402244410182808B
:10470000411122C42A842E85B285368623AE01C289
:1047100006C6EF10707CFD576317F5009387C1C381
:104720009C4391C31CC0B24022444101828085E178
:1047300041116C00014511CA795581CA83470600B1
:104740009CC1034506003335A0004101828001452C
:1047500019CA795589CA834706009CC103450600DA
:104760003335A0008280828063F3A504B386C50040
:10477000637FD5029345F6FF8147FD176393F500EC
:1047800082803387F600034807003387C7002A97E3
:1047900023000701DDB73387F500834607003307A1
:1047A000F50085072300D700E317F6FE82808147D6
:1047B000E5BF8280828081E5B2856FF06FE60111EE
:1047C00022CC06CE26CA4AC84EC6328401EEEFF08D
:1047D000AFDA0149F24062444A85D2444249B249C3
:1047E00005618280AE84AA8995282689E37485FEB6
:1047F000A2854E85EFF0CFE22A8969DDA685228663
:10480000EFE09FDAA6854E85EFF00FD7E1B74111B3
:1048100022C42A842E85B285368623AE01C206C6FE
:10482000EF10506CFD576317F5009387C1C39C438D
:1048300091C31CC0B24022444101828091CD9307B4
:10484000F00F63F7C7009307A0081CC17D55828055
:104850002380C500054582800145828083A7C5FF6E
:104860001385C7FF63D50700AA959C413E958280BA
:104870003708100001117D183377B80026CA337845
:10488000D80093D4450113D34601131E37004EC6FA
:104890001357D5010E089357D60193F4F47F137381
:1048A000F37F06CE22CC4AC893D9F50193DEF601F8
:1048B0003367C701131F350033E80701931F360024
:1048C000338E64406380D9196356C0136304031C9C
:1048D000B70680009307F07F3368D800638FF43603
:1048E0009307800363C0C735FD4763CDC7471305F2
:1048F00000023305C541B3D7CF01B316A8003399E1
:10490000AF00DD8E33392001B357C80133E92601EA
:104910001D8F33092F41B3372F013306F74093170B
:10492000860063D40724370780007D173374E600C0
:10493000630C042C2285EFC07FC2130785FF930709
:104940000002998FB357F9003316E400D18F331961
:10495000E9006341972A33059740130615007D4708
:10496000634DC73813070002118FB356C9003319BE
:10497000E9003397E700558F333920013369270168
:1049800033D6C70081449377790081CF1377F9003C
:1049900091476308F70013074900333927014A9606
:1049A0003A899317860063D6071C13851400930772
:1049B000F07FCE856304F520B70780FFFD17F18FE8
:1049C0009398D70113593900A607B3E82801B1839A
:1049D0001375F57F9396C7005205F2406244B18289
:1049E000FE05C98ECD8ED2444249B2494685B68570
:1049F00005618280631E0E0A138314001373E37F24
:104A000063170322B367E701B368F801639D041AD3
:104A100063870740638608443309FF41B3070741B2
:104A200033362F013386C7409317860063D6074C71
:104A30003389EF41B307E84033B62F013386C740CF
:104A4000F68991B76350C00F6300030CB70680006E
:104A50009307F07F3368D800638AF43A93078003A2
:104A600063CBC713FD4763DFC73513090EFE9307FA
:104A70000002B3562801630AFE001309000433093B
:104A8000C94133192801B3EF2F013339F0013369DC
:104A9000D90031A2B367F801638A071C9307FEFFB0
:104AA000638C07389306F07F6309DE1A3E8E0DBDD6
:104AB000B305934063910422B367E701638707322C
:104AC0009387F5FF638107449306F07F638CD520BD
:104AD000BE859307800363CCB72AFD4763CFB73CFD
:104AE000930700028D8F3319F700B356BF00B31739
:104AF000FF003369D900B337F0003357B70033698B
:104B0000F9003308E84041ACB367F801638007342B
:104B10009307FEFF638A07209306F07F6308DE2E6B
:104B20003E8E2DBF631E0E149386140093F7E67F0E
:104B300063910734B367E7016395042C6380073EF4
:104B4000B367F801638E07303309FF01B30707012C
:104B5000333FE9013386E7019317860063D70700E7
:104B6000B70780FFFD177D8E854493777900E39F1B
:104B700007E09317D60193583900B3E8F80093572C
:104B800036001307F07F638DE404B207B18313F599
:104B9000F47FCE8581B53369F801333920017A99E4
:104BA000B337E9013386E70093178600E3DF07FA9E
:104BB00085049307F07F6396F418CE851305F07F84
:104BC0008147814801BDC1EB6384083A93163600E2
:104BD0009317D8018D82B3E8D700F6899357380030
:104BE000B3E7F800F9DB81451305F07FB70708004C
:104BF0008148CDB3370680FF7D167D8E937779008F
:104C0000998CE39507D8B5B74A85EFC03F95130750
:104C10008501FD47E3D5E7D2130685FFB317C90029
:104C2000014905BB3369F80133392001DDB133098E
:104C3000FF413306074133342F0133048640931775
:104C4000840063CD0724B3688900E39308CE8147CD
:104C5000814981441DBFE39808F80E059317D701D9
:104C60000D81B3E8A700935737009DBF0E0593173A
:104C7000D7010D81B3E8A700F2849357370011B72D
:104C80003305934063820412B70680009307F07FD8
:104C9000558F630DF32E9307800363CBA720FD4749
:104CA00063C3A72A93070002898F3319F700B3560D
:104CB000AF00B317FF003369D900B337F0003357A3
:104CC000A7003369F9003A987E99B337F901338622
:104CD00007019A84D1BDB70680009307F07F558FF6
:104CE000E319F3DE931736008D839318D801B3E8E8
:104CF0001701F68993573800E5B5130715FE93069B
:104D0000000233D7E700630AD60093060004338617
:104D1000C6403396C7003369C9003339200133696F
:104D2000E9000146814491B53309FF01B30707014A
:104D30003336E9013E96931786008544E3D707E2B0
:104D40008944B70780FFFD17F18F135719001379B6
:104D50001900336927019398F70133E9280113D625
:104D6000170015B113090EFE93070002B356280170
:104D7000630AFE00130900043309C94133192801ED
:104D8000B3EF2F013339F0013369D90059B63369D4
:104D9000E7013339200133892F41B3B72F0133069F
:104DA000F8409A84F689A5BEB367E70163820718C5
:104DB0009307F5FF6384071C9306F07F6304D51205
:104DC0003E85D1BD93070002B387C741B316F800F3
:104DD0003399FF0033D6CF01D18E33392001B35739
:104DE000C80133E926013E975DBB931736008D83DA
:104DF0009318D801B3E81701AE8493573800F689A9
:104E000049B3EDC33369F801E31F09DC0E059317BD
:104E1000D7010D81B368F50093573700D1B3638193
:104E2000080E931636009317D8018D82B3E8D70089
:104E3000F6899357380091BB3309FF41B307074107
:104E4000333F2F013386E7418544D1BC0E059317CC
:104E5000D7010D81B368F500F2849357370015B37D
:104E60000E059317D7010D81B3E8A70093573700BC
:104E700029BB9307F07FE382F6D43309FF01333671
:104E8000E901B3070701B2979398F7011359190085
:104E900033E9280113D61700B684C1B93389EF412D
:104EA0003307E84033B62F013304C740F68949B4CD
:104EB0003369E7013339200101BD938705FE93066D
:104EC0000002B357F700638AD50093060004B38548
:104ED000B6403317B700336FEF003339E001336961
:104EE000F90055BD931736008D839318D801B3E8A8
:104EF000170193573800EDB1B368C900E39708C6AE
:104F00008147814959B13389EF41B307E84033B64E
:104F10002F013386C740F689854411B493163600B5
:104F20009317D8018D82B3E8D70093573800B1B9F1
:104F3000931636009317D8018D82B3E8D700AA8460
:104F4000935738003DB9930705FE93060002B35707
:104F5000F700630AD500930600043385A640331793
:104F6000A700336FEF003339E0013369F900A9BBC3
:104F700081451305F07FB7070800A9BC3309FF017D
:104F8000B30707013336F9013E9675B39316360021
:104F90009317D8018D82B3E8D7009357380089B1B1
:104FA000397193D7450122DC4AD856D22A89139405
:104FB000C50006DE26DA4ED652D45AD05ECE13F5A0
:104FC000F77F318093DAF501630B05109307F07FCB
:104FD000630BF514135AD9010E0433648A00370A9F
:104FE0008000336A4401131B3900930415C0014447
:104FF000814B13D846011399C6001378F87FB28805
:105000001359C90093D9F601630E08089307F07F7E
:105010006300F8041357D6010E09336927011308FA
:1050200018C0B70780003367F90093183600B384BF
:1050300004418145BD4733C83A0163E4871A972785
:1050400000009387E72C0A043E9410403E960286A7
:105050003367C9009384148063120710136424001B
:1050600081488945C1BF1306F07F81470147B207D8
:10507000F25062545206B1837E08D18FB3E7070124
:10508000D2544259B259225A925A025BF24B3A8593
:10509000BE852161828001481306F07FB7070800B2
:1050A0000147F1B73367C9004DC7630809304A8526
:1050B00032C4EFC0AFCA2246130755FFF547930627
:1050C00085FF998F3319D900B357F60033E72701CD
:1050D000B318D60026959304353F8145A1BF336AA6
:1050E000240163030A0636C632C46306042A2285F5
:1050F000EFC0CFC62246B246AA84130755FF754AB1
:10510000138B84FF330AEA4033146401335A490194
:10511000336A8A00331B69011305D0C0B30495407C
:105120000144814BF9B5336A240163180A00214414
:10513000014B9304F07F894B6DBD228A4A8B314429
:105140009304F07F8D4B75B51144014B8144854B21
:105150004DB51364140081488545E9BD13643400DE
:105160004A878D45C1BD630A052E8547898F930601
:10517000800363DDF632014681470147CDBDCE860F
:105180008947638DF53A8D47E387F5F08547368883
:10519000E383F5FE1385F43FE357A0FC93F7780013
:1051A0006396072893D638009317770063D80700D3
:1051B000B70700FFFD177D8F138504409307E07F3D
:1051C000E3C3A7EA1316D70193179700B183336798
:1051D000D6001376F57F61BDD6865287DA88DE85E4
:1051E00045B763614723630DEA20DA86FD145284D4
:1051F000014B9317870013D388013363F300935E49
:105200000301B357D403131F0301135F0F0193D599
:105210000601139E88003374D4033307FF0242044F
:10522000C18D63FBE5009A951386F7FF63EE652653
:1052300063FCE526F9179A95998D33D7D503C206F5
:10524000C182B3F5D5033306EF02C205D58D63FBEA
:10525000C5009A959306F7FF63E6652463F4C524B9
:1052600079179A95C20741645D8F9307F4FF3375F0
:10527000F70093580701935F0E01B377FE00B30266
:10528000F502B386C540B383F80293D50201338695
:10529000AF021E962E963385F8036373760022952F
:1052A000C168FD1893550601337616014206B3F81E
:1052B0001201AA95469663E6B6126382B6123306C9
:1052C000CB408D8E333BCB00338B66411385F43F4F
:1052D000630C6317B358DB0393550601337BDB0381
:1052E000B3061F03420B33EB6501637BDB001A9BA4
:1052F0009385F8FF636D6B20637BDB20F9181A9BA5
:10530000330BDB40B356DB0342064182337BDB03C6
:10531000330FDF02420B33666601637BE6011A96A8
:105320009385F6FF6367661E6375E61FF9161A9686
:10533000C208B3E8D8009395080193D20801C1814F
:10534000B38EF5023306E641B385BF0293D60E0154
:10535000B387F202BE95AE96B38F5F0263F4F60098
:10536000C167BE9FC165FD1593D70601ED8EC206CC
:10537000B3FEBE00BE9FF696637FF6091A9693872A
:10538000F8FF6369661A6368F619630FF61BBE8837
:1053900093E8180011B54A85EFC04F9C13075501DB
:1053A000F145930405022246B246E3DAE5D413043C
:1053B00085FF331A8900014B85B3328532C4EFC0B3
:1053C000EF9913075501F146AA87224613050502F6
:1053D000E3D6E6CEE1173317F6008148E5B9E3706E
:1053E000CBEE729B3335CB011A95AA961305F7FFC6
:1053F0006378D30263E6B6106382D5102A87C1B5FD
:10540000E3651BDF93551B009316FA0113541A0032
:10541000CD8E7E0BF9BBE31DF6F7E38F06D6B9BF41
:10542000E31ED3FCE378CBFD2A8751BD93F7F80048
:105430009146E389D7D693B7C8FF9386480093C7B0
:1054400017008D823E978DB381468547E34CA0FEC1
:10545000FD58E31C05D0930410C085471385E44133
:10546000B316A70033D6F8003395A800D18E333594
:10547000A000C98E13F676003357F70001CE93F7DC
:10548000F60011466388C70093874600B3B6D7007D
:105490003697BE869317870063D807040546814771
:1054A0000147F1B636877DBBB28779B3FD46E3D7B6
:1054B000F6FA0556098E930600023356C700638834
:1054C000D7009387E443B317F700B3E8F800B33687
:1054D0001001D18E13F67600814701CE93F7F600C6
:1054E00011460147E392C7FA931797001316D701A5
:1054F000B18313D73600518F014695BEE370CBF0D0
:10550000729B3335CB011A957917AA964DBBAE889D
:10551000C5BBAE8631BD93171E0033BEC701729363
:105520001A96F9183E8EE315F6E7E307DEC693E810
:1055300018009DB1BE88E30AF6FF99BD36881306B0
:10554000F07F8147014725B6E367DEFCBE88E310A4
:10555000DEFE99B113D74501B7071000FD1713D828
:1055600046011377F77F9308F07F33FEB700AA8ECA
:10557000F58FFD81328F1378F87FFD82630B170161
:1055800005436306180163140701630DFE001A85C5
:105590008280B368AE000543E39B08FEE319E8FE92
:1055A000D18FF5F70543E394EEFF0143E381D5FE88
:1055B000054371FF3365AE003333A000C9BF13D775
:1055C0004501B7071000FD1713D846011377F77F81
:1055D0009308F07F33F3B7002A8EF58FFD81B28EEA
:1055E0001378F87FFD8263081703630018030DEB3F
:1055F000B368A300631408005D8E29CA638508049C
:105600006388D502054595ED8280B3E8C700E38045
:1056100008FE795582803365A30065FD630CE802BE
:10562000631408005D8E79DEE39ED5FCE34CE8FC54
:1056300063480701E3E867FC6303F302637FF30059
:1056400081E57D558280F5DE054582800145E39B3D
:1056500008FA82805D8E69DA6DBF01458280E3E3DE
:10566000CEFB0145E372DEFBE5F1E1BF13D7450157
:10567000B7071000FD1713D846011377F77F93087B
:10568000F07F33FEB700AA8EF58FFD81328F13783D
:10569000F87FFD82630E1703630D180129E3B368D9
:1056A000AE00631F08005D8E01EE0143638C0804A9
:1056B00021A8B3E8C7000943639608046DD305A089
:1056C000638408046385D50205438DCD7D531DA8F1
:1056D000B368AE00094363970802630AE8026314E3
:1056E00008005D8E75D2E391D5FEE34FE8FC634977
:1056F0000701E3EBC7FD630FFE0001436374FE0087
:10570000F1D505431A858280EDFE7D53E5BF5D8EA0
:1057100079DACDBFE36ADFFB0143E3F5EEFFF5F194
:1057200075B739714AD813D945014ED652D456D2DD
:105730009399C50006DE22DC26DA5AD05ECE1379B4
:10574000F97F2A8A93D9C90093DAF501630D090E0E
:105750009307F07F6306F9181354D5018E09B369D6
:1057600034013704800033E48900931435001309B1
:1057700019C08149814B13D74601139AC60013778C
:10578000F77FB285135ACA0013DBF601630B0710CB
:105790009307F07F6303F7049357D6010E0A33EAA9
:1057A0004701130717C0B7078000B367FA009315C6
:1057B00036003A99814833C76A01BD463A851308D5
:1057C000190063E8361717260000130666B88A0921
:1057D000B29983A60900B2968286B367CA001309FC
:1057E000F97F6399071293E9290081458948E1B758
:1057F00001479307F07F3704080081443204D20741
:1058000031807E075D8C598CA285F25062542685CA
:105810004259D254B259225A925A025BF24B216138
:1058200082805A853E84AE84C68B8947638DFB0E89
:105830008D47E38FFBFA85472A87639EFB388147B4
:105840000144814465BF33E4A90061C036C632C457
:10585000638C092A4E85EFB07FD02246B246AA87D4
:10586000130755FF7544938487FF198CB3999900EA
:1058700033548A0033643401B3149A0013D74601B9
:105880001309D0C0139AC6001377F77F3309F94084
:105890008149814BB285135ACA0013DBF601E31923
:1058A00007EEB367CA00B1C7630F0A22528532C43C
:1058B000EFB0DFCA22462A87930655FFF5479305C6
:1058C00087FF958F331ABA00B357F600B3E7470145
:1058D000B315B6003309E9401309D9C08148E1BDC9
:1058E00033E4A90001ECA14981441309F07F894BFD
:1058F00059B593E919008145854875BD4E84AA8440
:10590000B1491309F07F8D4BBDB5914981440149DF
:10591000854B95B593E93900D2878D4869BD894794
:105920005685E397FBF02A879307F07F0144814473
:10593000F1B5C16E1386FEFF93D6040113DE050197
:10594000F18CF18D338695023383B60293580601AC
:1059500033059E021A95AA98B382C60363F36800C2
:10596000F692C16F1383FFFF33F5670093D30701EE
:10597000B3F76800C207337366003E93330695029F
:1059800093D80801B387A602135F0601B38493027C
:10599000BE94FA94B38E760263F3F400FE9E416ADD
:1059A0009307FAFF935F0401B376F400B3F9F400B0
:1059B0007D8EC1803384D502C209338FD401B29960
:1059C000CE98B307DE02935E0401B385BF02AE97A3
:1059D000BE9E330EFE0363F3BE00529EC1679385E5
:1059E000F7FF33F6BE006D8C4206229693DE0E0161
:1059F000B305D502769E3385AF0213D40501B38675
:105A0000D302AA96A296B38FF30363F3A600BE9FB8
:105A100041657D15B3F7A600C2076D8DAA97B385C2
:105A20005800B3B93501FA97B2953384370133B6CC
:105A3000C500B30EC4013385CE0033343401B3B78F
:105A4000E701C18F33BECE0113D406013336C50042
:105A50003E943366CE009394950032947E94B3E4E2
:105A60006400260493567501B3349000DD819317CA
:105A70009500CD8C558CDD8C9317740063DB07008B
:105A800093D7140085889316F401DD8CD58C05809E
:105A900042899307F93F6359F00893F6740081CE69
:105AA00093F6F40011466388C60093864400B3B4AD
:105AB00096002694B6849316740063D80600B70740
:105AC00000FFFD177D8C930709409306E07F63CFAD
:105AD000F60E93D634009314D4012604D58C31806D
