:100000006F00606F13000000130000001300000079
:100010001300000013000000130000001300000094
:100020001300000013000000130000001300000084
:08003000130000007300100032
:100038000000000000000000780300007C030000BE
:10004800000000003C060000000000000000000066
:100058003E0600004006000000000000000000000E
:1000680042060000000000004406000000000000F6
:1000780046060000480600004A0600004C0600003C
:100088004E0600005006000052060000540600000C
:1000980056060000580600005A0600005C060000DC
:1000A8005E060000600600006206000064060000AC
:1000B80066060000680600006A0600006C0600007C
:1000C8006E0600007006000072060000740600004C
:1000D80076060000780600007A0600007C0600001C
:1000E8007E060000800600008206000084060000EC
:1000F80086060000880600008A0600008C060000BC
:100108008E0600009006000092060000940600008B
:1001180096060000980600009A0600009C0600005B
:100128009E060000A0060000A2060000A40600002B
:10013800A6060000A8060000AA060000AC060000FB
:10014800AE060000B0060000B2060000B4060000CB
:10015800B6060000B8060000BA060000BC0600009B
:10016800BE060000C0060000C2060000C40600006B
:10017800C6060000C8060000CA060000CC0600003B
:10018800CE060000D0060000D2060000D40600000B
:10019800D6060000D8060000DA060000DC060000DB
:1001A800DE060000E0060000E2060000E4060000AB
:1001B800E6060000E8060000EA060000EC0600007B
:1001C800EE060000F0060000F2060000F40600004B
:1001D8000000000000000000000000000000000017
:1001E8000000000000000000000000000000000007
:0801F8000000000000000000FF
:100200003718004013084802872003009305430075
:1002100007A1050093050F00832F08000145D37146
:1002200000D08720030007A1030027A01E0027207D
:100230002F0011039103910E110F0505E34355FEA5
:10024000014553F202D0330E5E4027A01E00D3F2C8
:10025000411827205F0007A30500910E110F91059B
:100260000505E344C5FF83230800B383F34182807F
:10027000397101436EC619A0397141536AC866CA03
:1002800062CC5ECE19A0397101535AD056D252D4E5
:100290004ED64AD826DA22DC06DE3301614082825D
:1002A00041114AC026C222C406C68282B24D410113
:1002B000024D924C224CB24B4101024B924A224ACF
:1002C000B2494101024992442244B2404101828034
:1002D0003D432A876373C3029377F700BDEFADE513
:1002E000937606FF3D8ABA960CC34CC30CC74CC725
:1002F0004107E36BD7FE11E28280B306C3408A0652
:100300009702000096966780A6002307B700A30611
:10031000B7002306B700A305B7002305B700A30461
:10032000B7002304B700A303B7002303B700A30259
:10033000B7002302B700A301B7002301B700A30051
:10034000B7002300B700828093F5F50F93968500E0
:10035000D58D93960501D58D61B7939627009702A9
:10036000000096968682E78086FA9680C1171D8FD8
:100370003E96E374C3F8A5B77300203001A0EFF2F6
:100380003FF241110145C12185454145B92DFD5738
:100390004C00371500407C8423120100B5258545AB
:1003A000371500403927410131BFEFF2DFED797198
:1003B00009457921D922EF00607F71651305052079
:1003C000EF007001B707002083A5071F3765000005
:1003D000130585A1EF10603CB767000087A7C7A091
:1003E000B767000002C43EE887A707A1B76700000F
:1003F0003EE687A747A13EEA59378947938207001F
:100400003C00138307001C08938307008D47138E5D
:1004100007002408938E04004010130F0400EFF02F
:100420003FDE0149376B0000B76A00000D4A93892F
:100430000300884011049104EF0010052A86AE865F
:1004400013058BA2CA85EF1040350325C4FFEF00CA
:10045000B0032A86AE8613858AA3CA850509EF10E4
:10046000C033E31849FD37650000CE85130585A428
:10047000EF10A03237650000130545A5EF10E043EB
:1004800001A0B71702409843B706FFF84111136760
:10049000170098C3D84337060200758FD8C3984316
:1004A000B706F7FEFD16758F98C39843B706FCFF95
:1004B000FD16758F98C3D843B70681FFFD16758F5B
:1004C000D8C39843B70600ECFD16758F98C337075D
:1004D000FF0098C723A6070202C402C69843C1665C
:1004E000558F98C3B716024005679C42F18F3EC6F0
:1004F000A24785073EC4B24781E7A247E397E7FEDC
:10050000B71702409C431397E700635607068547D9
:100510003EC632478547631EF704B7170240D843EB
:10052000B706C1FFFD16D8C3D843D8C3D843136755
:100530000740D8C3D843758FD8C3D843C166558FF9
:10054000D8C39843B7060001558F98C398439316B4
:100550006700E3DD06FED843B7160240719BD8C39F
:10056000D84313672700D8C32147DC42B18BE39EF1
:10057000E7FE4101828002C669BF371602405C4235
:10058000370700209146B18B1307071F6385D700FB
:10059000A1466388D702B7177A00938707201CC348
:1005A000B7170240DC43918393F6F700B7070020AA
:1005B00093870700B69794231C43B3D7D7001CC377
:1005C000828054425042C167C982BD8A7D8E938722
:1005D000260085CABD466389D702C1466389D70212
:1005E000C54581466393B700C1470DE637460240D3
:1005F00003260680418A15C637167A0013060620A0
:100600002DA08146C947D5B78546B547F9BF814674
:10061000BD47E1BF3716024050429315E600E3DDC7
:1006200005FC37163D0013060690B387C7021CC3AE
:10063000A5DA1C438583A5B701A001A001A001A0F4
:1006400001A001A001A001A001A001A001A001A0A2
:1006500001A001A001A001A001A001A001A001A092
:1006600001A001A001A001A001A001A001A001A082
:1006700001A001A001A001A001A001A001A001A072
:1006800001A001A001A001A001A001A001A001A062
:1006900001A001A001A001A001A001A001A001A052
:1006A00001A001A001A001A001A001A001A001A042
:1006B00001A001A001A001A001A001A001A001A032
:1006C00001A001A001A001A001A001A001A001A022
:1006D00001A001A001A001A001A001A001A001A012
:1006E00001A001A001A001A001A001A001A001A002
:1006F00001A001A001A0970100209381A12F1781E3
:10070000002013012190175500001305657F970500
:1007100000209385258F1386818163FAC50083228B
:10072000050023A0550011059105E3EAC5FE1385D8
:1007300081819385C1826377B5002320050011056F
:10074000E36DB5FEFD42739002BCAD4273904280F2
:10075000B76200009382820873A002309702000003
:100760009382C28D93E2320073905230EFF07FD1CA
:10077000970200009382A2C373901234730020305A
:100780009C4513F7070113F8F70001C7D8413368F8
:10079000E8008E2113F7F50F39C318418146854EC5
:1007A0003D4F930F800293028004214E3396DE006A
:1007B000B3F8C500631116039398260033131F0185
:1007C0001343F3FF3377E300B318180133E7E8006E
:1007D000639FF70550C98506E39AC6FD18C1130744
:1007E000F00F6375B70454412146854E3D4F930F7A
:1007F000800293028004414EB398CE0033F7150176
:100800006392E8021317260001173313EF00134316
:10081000F3FFB376D3003317E800D98E639DF70159
:10082000232A15010506E319C6FD54C18280E3940D
:1008300057FA10C94DB7E39757FE23281501DDB7C6
:1008400023ACA1808280371702405C4393F7F78F77
:100850005D8D48C38280371702405C439146B18B5F
:100860006385D700A1466382D706B7177A009387BE
:1008700007201CC1371602405C42370700201307CF
:1008800007019183BD8BBA9794231C41B3D7D7003E
:100890005CC15442A1829D8ABA969422B3D6D700F5
:1008A00014C55442AD829D8A36971823B3D7E7000A
:1008B0005CC5584239839376370013874180369759
:1008C0001823B3D7E7021CC982805C435843C16632
:1008D000C983758FB7F6FF1F83A6C670BD8B8907C6
:1008E0001396160163480600C54601466392D70277
:1008F000C94739A88946638FD702BD46638ED702A0
:10090000C146638ED702C54601466393D700C147EF
:100910001DEF3747024003270780418B05C7371774
:100920007A0013070720B307F7021CC121D61C4128
:10093000858381B701466DBF0546B547D1BF0146E6
:10094000BD47F9B737173D0013070790E9BFB71543
:100950000240D8559316F700D85563DF060411837B
:100960003D8B9306170037177A001307072033577C
:10097000D70218C1D455A182BD8A8DE295463307AE
:10098000D702058318C137170240585714413D8BD1
:10099000050733D7E60218C1184171B7854563943E
:1009A000B600E546E9BFBD456396B600D14633873C
:1009B000E602C9BF8906E5BF3D8B930617003717CE
:1009C0007A00130707203357D702F1B799C53717B5
:1009D00002401C4F5D8D08CF8280B7170240984FB0
:1009E0001345F5FF798D88CF828099C5371702406E
:1009F0005C4F5D8D48CF8280B7170240D84F1345BA
:100A0000F5FF798DC8CF82801E21373701409306CC
:100A100007C0C207C1836300D504B7060040630C5A
:100A2000D502938606406308D502B71600401386A8
:100A300006806302C502938606C0630ED5001307C5
:100A40000740630AE50037570140930607C0630477
:100A5000D5006316E500BA2193F7F7F8D98F371759
:100A60000040630CE500130707406308E50093F7B7
:100A7000F7CFFA21C207C183D98F1EA1DE215EB54F
:100A80009E211EB5B7370140138707C0630EE500EE
:100A900093870740630AF500B7570140138707C0E3
:100AA0006304E5006314F5009C251EB985475EA923
:100AB00082801E2189C593E717001EA18280C2078C
:100AC000C183F99BC207C183CDBFEFF26FFD162929
:100AD000F577FD17F58FF621DA257971D58F1EA9E7
:100AE0005625FD779387379FF58FD6212A842EC60A
:100AF000D58F9625D58FB625D58F5EA55E29C207E1
:100B0000C18393F7F7CFD98F5EA96808A933B74798
:100B1000014093870780B245631AF404A257562414
:100B20006547B387E702C206C186984163D20604CF
:100B3000060752244206B3D7E70213074006418650
:100B4000B3D6E702B3F7E7029206635506028E07B3
:100B500093872703B3D7E70213F77700B367D7006C
:100B6000C207C1831EA445616FF0CFF5925745BF00
:100B70000A07C1B7920793872703B3D7E702BD8B54
:100B8000D58FF9BF91C55E250967D98F5EA5828093
:100B90005A25F977FD17F98FD5BF93F5F51F4EA1AB
:100BA00082800A216D8D3335A0008280B707002036
:100BB00083A7071F37177A0013070720B3D7E70269
:100BC00093F7F70F238FF1801307803EB387E70277
:100BD000239EF1808280EFF2AFEC2A84116501112F
:100BE00085451105E533930700207C8237150140C8
:100BF0008D473EC44C00E147130505803EC649368B
:100C000022C837440140B70708000C0813050480C8
:100C10003ECC02CA231E01004D3D854513050480CC
:100C2000953705616FF00FEAEFF2EFE5B744014049
:100C3000AE893289014493840480634524014A8546
:100C40006FF0AFE7930500042685A13F65DDB3870C
:100C500089008385070026850504C205C181353FCB
:100C6000E9BF138781801C439386C1823E95636BE5
:100C7000D500B78600209386068063E5A60008C3EA
:100C80003E858280FD57EDBF135775011377F70F2F
:100C900041119307170022C426C21314950006C6FB
:100CA00093F7E70F25809354F50185C793573400D8
:100CB000130707387604B2075207B1831395F4017E
:100CC000D98FC98FB240228522449244BE8541010A
:100CD000828005EB39C42285B128A94763C6A704E1
:100CE0002D47098F930755013357E4003314F4005F
:100CF0009317C70013079038098FB1831377F77FD5
:100D00005DBF01CC13573400B7070800D98FB20775
:100D10007604B1831307F07F79BF1307F07F814713
:100D200059BF0147814741BF130755FF3317E400FF
:100D300001447DBFC167637EF5029307F00F13077F
:100D4000000263ECA70097570000938727D1AA976A
:100D500003C507003305A740828021819757000013
:100D60009387C7CFAA9703C5070061473305A740FC
:100D70008280B7070001636EF5006181975700001C
:100D80009387C7CDAA9703C5070021473305A7401E
:100D90008280418197570000938747CCAA9703C56B
:100DA000070041473305A7408280797122D44AD099
:100DB00052CC56CA5AC806D626D24ECE3A8AAE8AE7
:100DC00032843689428B014763580600370700801A
:100DD0003344C7001307D0022380E70093F4F8FDE3
:100DE000930760048D466388F40093075004894696
:100DF0006393F4000509DA879308C10013088100A2
:100E00004A87D6852286EF00305E93077004AA8950
:100E10006396F400137A1A00630A0A0493076004C5
:100E2000338A29016397F40203C70900930700037B
:100E3000631EF700014681465685A285EF303023B8
:100E400011C585473389274123202B0183270B00B8
:100E50003E9A014681465685A285EF30502111E128
:100E600052C613070003B24763E24703B247425733
:100E7000B2502254B38737411CC34E859254025955
:100E8000F249624AD24A424B4561828093861700FA
:100E900036C62380E700C1BF2300C5001307250025
:100EA0009307B00263D60500B305B0409307D002A4
:100EB000A300F500A54763DAB70441119307F100D9
:100EC000BE88294813033006B3E605031386F7FFEF
:100ED00093860603A38FD7FEB3C60503634DB30005
:100EE00093860603F917A30FD6FE63E917013305AE
:100EF000A74041018280B287B685F9B7850783C6CE
:100F0000F7FF0507A30FD7FECDB79307000313071D
:100F10004500938505032301F500A301B5003305C2
:100F2000A740828019713ACE86DEA2DCA6DA2E8432
:100F3000CAD8CED6D2D4B689DAD0DECEE2CC3289C7
:100F4000D6D2E6CAEAC8EEC6AA84EF10B048832B10
:100F500005005E85EF001017032B0400724702DCCA
:100F600093760B102A8C034A84011C43F1CA9386A2
:100F7000470014C39C43081098433AD0D8433AD250
:100F800098473AD4DC473ED6EF40900228C46CC460
:100F9000832CC40417570000130747BC832A84041A
:100FA000032D0700832D470093971C0085836A86D5
:100FB000EE865685BE853ECEEF40A06741EDF247F6
:100FC0006A86EE865685BE85EF30F01B6354A00816
:100FD000014681465685E685EF30F01A63560500D6
:100FE0009307D002A301F40493077004975A0000FA
:100FF000938A4AB763F64701975A0000938ACAB6A4
:10100000137BBBFF8D47232064011CC8014B4E8717
:10101000CA867018A2852685F126FD5C631C95158D
:101020007D55F6506654D6544659B659265A965AA6
:10103000065BF64B664CD64C464DB64D0961828038
:101040009D07E19B9386870014C39843DC4338C413
:101050007CC43DBF5686E6865685E685EF40605DDA
:1010600011CD93077004975A0000938A2AB0E3F9D0
:1010700047F9975A0000938AAAAF59B75C407D5749
:10108000137DFA0D6393E70899475CC054401367DA
:101090000B403C18D6853EC018C09307310302C2EE
:1010A000D2881308410366862685013393077004AE
:1010B000AA8AD255631BFD00F55763C5F5005C4055
:1010C00063D7B708791A137AFA0F9307500663E5C6
:1010D0004705FD155286130504052EDA753B625748
:1010E00085462A8BB307A7001CC863C5E6001840D5
:1010F000058B19C385071CC883473103E38907F0B3
:101100009307D002A301F40419B713077004E31F77
:10111000EDF6ADFF854795BF93076006631BFA02A6
:101120005C40635BB0000CC881E71840058B09CFB9
:101130008507AE971CC809A889E718408546058B26
:1011400019C39386270014C82CCC014B75B7130A1A
:101150007006E25763C9F5001C400CC8858BEDD7BB
:1011600093871500C1BF05476344B00009470D8F41
:10117000BA97C9B71C4013F7074015E314485686C1
:10118000CA8526858299E30D95E91C40898B639673
:101190000724F2574844E356F5E83E8559B513074E
:1011A0005006637B471928446C4401468146EF3062
:1011B000006C39E98546175600001306A69BCA85C0
:1011C00026858299E30E95E55257E2576345F7006D
:1011D0001C40858BDDDBE2865E86CA85268582998A
:1011E000FD57E30FF5E2014A930AA4017D5BE25744
:1011F000FD17E35CFAF885465686CA8526858299EE
:10120000E30065E3050AE5B7D2576346F006854675
:101210001756000013060696CA8526858299E301B3
:1012200095E1D2576257D98F81E71C40858BB1DF9A
:10123000E2865E86CA8526858299FD57E302F5DE41
:10124000014A130BA401FD5BD257B307F040634B77
:10125000FA00E2565686CA8526858299FD57E3161E
:10126000F5F27DBB85465A86CA8526858299E309B3
:1012700075DB050AD1BF3C4C625A63D347013E8AF5
:10128000635A4001D2865686CA8526858299FD57C3
:10129000E308F5D8814C130DA401FD5D09A885462E
:1012A0006A86CA8526858299E30CB5D7850C032BFF
:1012B0008405D28763530A008147B307FB40E3C02C
:1012C000FCFE5257E257634DF7021C40858B8DEBB5
:1012D000E2575257338AE7406344EB00338A674151
:1012E000635B4001D28633866A01CA85268582996E
:1012F000FD57E307F5D2814A130BA401FD5B15A04E
:10130000E2865E86CA8526858299FD57E312F5FC42
:1013100001BB85465A86CA8526858299E30275D126
:10132000850A5257E257998F528763530A00014743
:10133000998FE3C0FAFE91BDE25605476344D7009A
:10134000858BB5C785465686CA85268582997D5A7E
:10135000E30845CDE2865E86CA8526858299E3014B
:1013600045CD28446C4401468146EF3040501DC9AC
:10137000E25613861A00CA85FD1626858299E30176
:1013800045CBDA8613060405F9B585465686CA8527
:1013900026858299E30675C9050AE257FD17E346DB
:1013A000FAFEC5B7014A930AA401FD5BFDB7854665
:1013B0005686CA8526858299E31595FD95B18546A1
:1013C0005686CA8526858299E30C65C5050A5C4464
:1013D0007257998FE345FAFE6DBB014A930A940157
:1013E0007D5BF5B7797156CA9C49BA8A984522D473
:1013F00026D24ECE52CC06D64AD05AC85EC6AA894C
:101400002E84B284368A63D3E700BA879CC0034730
:10141000340419C385079CC01C4093F7070281C799
:101420009C4089079CC00329040013796900631A52
:101430000900130B9401FD5B5C449840998F634C49
:10144000F9041C408346340493F70702B336D000F6
:10145000A5EB13063404D2854E85829AFD576303AB
:10146000F5041C4011469840998B5444814463977D
:10147000C700B384E64063D3040081441C44184889
:101480006354F700998FBE94014969047D5B6398AA
:101490002405014509A885465A86D2854E85829A3B
:1014A000631E75017D55B250225492540259F2497F
:1014B000624AD24A424BB24B456182800509ADBFB8
:1014C0003307D40013060003A301C70403475404E1
:1014D00093871600A2978906A381E7049DBF8546DE
:1014E0002286D2854E85829AE30E65FB050945B7B3
:1014F000797122D426D24AD04ECE06D652CC56CAC4
:101500005AC8B68983C68501930790063289AA8492
:101510002E8413863504638DF60263E2D7069307A3
:1015200080056388F61863EDD70063810622930770
:101530003004638FF60A930A24042301D404D1A053
:10154000930730066386F60A93074006E395F6FE96
:101550001C40084393F6070893054500CDC61C417F
:101560000CC363D807001307D002B307F040A301F0
:10157000E4049746000093862660294775A89307E0
:1015800000076384F61663E5D7029307E006638BD2
:10159000F6189307F006E390F6FA0C401C4313F894
:1015A0000508138547006308080608C39C4395A8EF
:1015B00093075007E383F6FE93078007638BF612C9
:1015C00093073007E399F6F61C43D0418145938693
:1015D000470014C383AA07005685EF10807101C528
:1015E0003305554148C05C401CC8A301040471A8E0
:1015F0001C43930A2404938647009C4314C323018D
:10160000F4048547D5B793F607041C410CC3B1DA3F
:10161000C207C187B9B793F5050408C3C1D983D7F9
:1016200007001307F0066387E60E974600009386CF
:10163000A6542947A30104044C400CC463C505000B
:1016400008406D9908C099E3B28A91CDB28AB3F58A
:10165000E702FD1AB69583C505002380BA00B3D50D
:10166000E70263FFE70AA147631EF7001C40858B72
:1016700091CB58401C4863C7E70093070003A38F32
:10168000FAFEFD1A3306564110C84E87CA8670000E
:10169000A2852685813B7D5A631E450B7D55B25040
:1016A000225492540259F249624AD24A424B45614D
:1016B0008280A382D504974600009386E64B0C40B7
:1016C000084313F805081C411105630D080208C3FF
:1016D00013F7150001C793E505020CC04147B9FB9C
:1016E0000C4093F5F5FD0CC0B1B79C4193E70702A0
:1016F0009CC193078007A302F404974600009386D9
:10170000E64875BF13F8050408C3E30308FCC207E5
:10171000C1837DBF9746000093860646214719BFC7
:10172000AE8735B794411C43CC4913F8060813859E
:1017300047006306080008C39C438CC301A808C384
:1017400093F606049C43F5DA2390B700232804009F
:10175000B28A25BF14485686CA8526858299E30F2A
:1017600045F31C40898B8DE7B2474844E359F5F2B5
:101770003E8535B785465686CA8526858299E30F0C
:1017800065F1050A5C443247998FE345FAFEE9BFEB
:10179000014A930A94017D5BF5B739713EDA2ED286
:1017A00032D436D63AD842DC46DE9387C18022CC8A
:1017B000804326CA06CEAA8411C41C4C81E7228528
:1017C000EF10602A0C4454102686228536C6EF108E
:1017D000306DF2406244D24421618280011126CAF8
:1017E0004AC806CE22CC4EC652C4AA842E8909C548
:1017F0001C4D99E3EF1020279C4C804481E72685FF
:10180000EF1060269747000093874741631CF4025E
:10181000C0408357C400A18BB1C71C48A1C7FD5964
:10182000294A1C4483450900FD17B1E91CC463DE45
:1018300007062286A94526857928FD576308F50203
:10184000294535A0974700009387473F6314F4006C
:101850008044C1B7974700009387473AE31BF4FAE7
:10186000C04445BFA2852685152A55D97D55F2402D
:101870006244D2444249B249224A056182801CC472
:10188000050963D70700184C63CBE700638945015E
:101890001C401387170018C02380B70059B7228651
:1018A00026851528E31F35F7D1B71C40138717008D
:1018B00018C029472380E70061B79387C180AA85B4
:1018C000884329BFAA87850703C7F7FF6DFF3385C4
:1018D000A7407D158280011122CC26CA4AC806CEB7
:1018E0004EC6AA842E89328409C51C4D99E3EF1097
:1018F00080179747000093876732631BF406C04048
:101900001C4C1CC48357C400A18BD9C31C48C9C339
:101910001C4808409379F90F1379F90F1D8D5C4825
:101920006347F500A2852685EF10E00135E51C44EC
:101930000505FD171CC41C401387170018C0238021
:1019400037015C486389A7008357C400858B89CB26
:10195000A9476317F900A2852685EF00D07E0DED1B
:10196000F24062444A85D2444249B24905618280CC
:10197000974700009387872C6314F400804449B78D
:101980009747000093878727E31CF4F6C0448DBF78
:10199000A285268521202DDD7D59D9B74111938758
:1019A000C18026C2844322C44AC006C62A892E8426
:1019B00091C49C4C81E72685EF10E00A9747000010
:1019C0009387C725631CF402C0400317C400931714
:1019D0000701C18393F68700BDEE93F607019DEEE4
:1019E000A5472320F900136707042316E4007D555B
:1019F000B24022449244024941018280974700004C
:101A00009387C7236314F4008044C1B7974700004D
:101A10009387C71EE31BF4FAC04445BF918B95C75B
:101A20004C5891C9930744046385F5004A85EF102B
:101A30005029232A04028357C4002322040093F769
:101A4000B7FD2316F4001C481CC08357C40093E75D
:101A500087002316F4001C4889EF8357C40013073E
:101A6000002093F707286386E700A2854A85EF10D8
:101A7000801D8357C40013F7170005C75C48232453
:101A80000400B307F0401CCC1C480145B5F3831794
:101A9000C40013F7070829DF93E707042316F400AF
:101AA000B9B7898B014791E3584818C4F1BF0111B8
:101AB00022CC1C49804906CE26CA4AC84EC652C40A
:101AC00056C263C187127D141318240093894501FF
:101AD000338A0901130945014A9883270A0003271D
:101AE00008008507B354F7026366F706C1684E83A2
:101AF0004A8E814E014FFD1811030326C3FF110EBC
:101B000033771601418233079702330696027697A0
:101B100093560701B3771701B307FF403696832624
:101B2000CEFF935E06013376160133F71601BA979E
:101B3000C18213D70741918EBA9613DF0641B3F7DE
:101B40001701C206D58F232EFEFEE3776AFA83279C
:101B50000800BDCBAA8AEF100075634905044166F1
:101B60008504CA8501457D16910903A8C9FF9841DE
:101B70009105B376C800158DB376C700AA96935722
:101B800007011358080113D70641B3870741BA97D5
:101B900013D50741F18EC207D58F23AEF5FEE3754D
:101BA0003AFD93172400CA9798431DC72685F24033
:101BB0006244D2444249B249224A924A0561828033
:101BC0008327080089E77D147118E36B09FF00C9BA
:101BD00051B7984309E77D14F117E36CF9FE23A888
:101BE0008A00E9B70145E1B775713ED85C5122C55D
:101BF00026C34AC1CEDED2DCE2D406C7D6DADAD8B2
:101C0000DED6E6D2EAD0EECE36C23AC646CAAA84BC
:101C10002E843289C2892E8A328C89EF4145EF1099
:101C2000800CC8D0232205002324050023200500B2
:101C300023260500DC508C4389CDD8438547268573
:101C4000B397E7009CC5D8C1EF100020DC5023A05B
:101C50000700635309048547131C190023A0F900EA
:101C6000135C1C00B707F07F3377FC006314F706A2
:101C700042578967320C9387F770135CCC001CC302
:101C8000336C8C00E3050C32D24791EB9747000090
:101C9000938787F63EC039A823A00900E1B797478C
:101CA0000000938767F53EC0974700009387F7F4DD
:101CB00052471CC3BA402A4402459A440A49F6597D
:101CC000665AD65A465BB65B265C965C065DF64D58
:101CD00049618280014681462285E28522CE62D416
:101CE000EF20F03805E1425785471CC397470000B5
:101CF000938747E83EC0D247D5DF974700009387D8
:101D000077E77DB7B800F4006286A285268513596F
:101D10004C01EF10606B1379F97FAA89A64A630D15
:101D20000910A2577245130919C09395C700B181D4
:101D3000B707F03FDD8D02DC97470000938787E609
:101D40009043D443EF30001B97470000938707E68A
:101D50009043D443EF20904E97470000938787E548
:101D60009043D443EF1070622A8B4A85AE8BEF30DC
:101D7000901697470000938767E49043D443EF2081
:101D8000F04B2A86AE865A85DE85EF1010602A8BCE
:101D9000AE8BEF30D00D2A84014681465A85DE8510
:101DA000EF20703E635B05002285EF30D0125A862B
:101DB000DE86EF20D02B11C17D140547D9473AD6D6
:101DC00063E387021317340097470000938787EB7C
:101DD000BA979043D4437245A255EF20D03A63534B
:101DE00005007D1402D633892A41930BF9FF014B7C
:101DF00063D60B00054B330B2B41814B634E04061E
:101E0000A29B22CC814A1247A54763E5E714954778
:101E1000854C63D6E7009307C7FF3EC2814C12474B
:101E20008D47630EF71063CFE704894702C8630D3F
:101E3000F70685473EC88DA036499307000256999C
:101E40001307294363D5E70213050004198D93078F
:101E500029413315AC003354F400418DEF30D00EDE
:101E6000B70710FEBE9585477D193EDCF1B5338579
:101E7000E7403315A400DDB7330B8B40B30A804035
:101E800002CC51B712479147630EF70005473AC895
:101E9000124795476306F70AFD573EC4FD5DC947E3
:101EA00002C619A885473EC8B2476348F00A85476D
:101EB00005473EC4854D3AC603A944021147232273
:101EC0000900930647018325490063FCD70826854E
:101ED000EF00306FDC502320A9009C433EC0B9477F
:101EE00063E6B71D63840C1C635E800A9377F4007D
:101EF00013973700935C444097470000938787D837
:101F0000BA9793F60C0198430949DC4385C6974676
:101F100000009386A6D490527245D452A2553AD06E
:101F20003ED2EF2080390257925793FCFC002A8A58
:101F30002E8C0D49174D0000130D4DD289A802C8F3
:101F4000B247A2973EC4938D1700EE87E346B0F7E1
:101F500085479DB7854C02C2E9BDB2473EC4BE8DE0
:101F6000A1BF85052322B9000607A1BF93F61C0077
:101F700081CE03260D0083264D003A85BE85EF20D5
:101F8000F02B05092A87AE8793DC1C40210DE39FC7
:101F90000CFC3A86BE865285E285EF2000322A8A02
:101FA0002E8C81A0094915CCB30C804093F7FC001E
:101FB00013973700974700009387C7CCBA97904391
:101FC000D4437245A25593DC4C40174D0000130DCD
:101FD000EDC8EF20B0262A8A2E8C8147639C0C1214
:101FE000DDFFB2576387071417470000130787BD4B
:101FF000104354435285E28552D0EF20D018635AE3
:102000000512638B0D12A2476350F00A17470000B8
:102010001307C7BB8257104354433E85E285EF2028
:10202000F021A247130DF4FF2A8A2E8C050962873E
:102030004A853EDE52DABA8C3AD0EF30C069525847
:1020400002573709C0FC4286BA86EF20301F9746F8
:102050000000938626B89042D442528CEF10F032A2
:10206000F2572A8A2E99E1EF97470000938707B726
:10207000525802579043D4434285BA85EF20906767
:102080005286CA862A8CAE8CEF201005634AA05473
:10209000B7070080B3C727015286BE866285E685F2
:1020A000EF20700E634B0552724A225CB64763C73D
:1020B00007303947634487301317340097470000CF
:1020C000938747BCBA9703AB070083AB4700B2477F
:1020D00063D207206340B02163910D509747000001
:1020E0009387C7AF9043D4435A85DE85EF20101500
:1020F0005286E286EF20407E814A01496357054AB5
:10210000824702470504138A170093071003230030
:10211000F70045A113F71C0009CB03260D00832609
:102120004D000509EF209011854793DC1C40210DDF
:1021300075B5228DEE87E5BD228D8147CDBD938695
:10214000F7FF13963600974600009386A6B3B29623
:102150008842CC428246B6973EDAC247E9C39747E7
:102160000000938727A82A86AE868843CC434ADEA0
:1021700052D0EF20801402587257174900001309FB
:10218000E9A44286BA86EF20F056024A2AD02ED21F
:10219000E6856285EF30A04D2ADEEF30C0532A86F7
:1021A000AE866285E685EF20F054F2572A8CAE8C1D
:1021B0002A86AE8602559255050A93870703A30F18
:1021C000FAFEEF2060716348A00E974700009387E6
:1021D000679F8843CC436286E686EF20B0512A860B
:1021E000AE8602559255EF20206F6342A018D25759
:1021F000E30CFAEA032609008326490002559255AA
:10220000EF20D00303260900832649002AD02ED2CE
:102210006285E685EF2090022A8CAE8C95BF5286AF
:10222000CA86EF20B001525A02492AD02ED2E68542
:102230006285EF30C0432ADEEF30E0492A86AE8661
:102240006285E685EF20104B7257D25705091307B8
:102250000703A30FE9FE2A8CAE8C6312F906174917
:102260000000130929980326090083264900025516
:102270009255EF1090112A86AE866285E685EF2092
:10228000A0656346A00E02569256032509008325D9
:102290004900EF2030462A86AE866285E685EF202B
:1022A000806E93070003E35105E00347FAFF9306AE
:1022B000FAFF6304F7006A8459A8368AFDB7974786
:1022C00000009387A7909043D443EF2020772A8C77
:1022D000AE8CB1BFE287BE8C8247528C974A000019
:1022E000938ACA8E13891700BE9D5A86DE86628540
:1022F000E685EF10907CEF3080372A8DEF30A03DDF
:102300005A86DE86EF2080732A86AE866285E68551
:10231000EF20503E93070D03A30FF9FE2A86AE86E9
:102320004A8A639E2D07EF1050065A86DE862A8C55
:10233000AE8CEF20605A634BA0025A86DE8662851F
:10234000E685EF20C05201E593771D0085E3CE8539
:102350002685EF00702FC25723000A00050480C3B2
:10236000D247E389079423A04701A9B2228D13071E
:1023700090038346FAFF9307FAFF639AE6008246CA
:10238000639DF60013070003050D2380E60003C7D5
:10239000070005072380E70039BF3E8AD9BF03A69F
:1023A0000A0083A64A000509EF20406901468146DC
:1023B0002A8CAE8CEF20A04B0DF951BF4247630031
:1023C0000710924605476345D70C625793873743FA
:1023D00009E7264793076003998F568DDA8C854568
:1023E00026853E9BBE9BEF00703E2A89635E90016E
:1023F000635C7001E68763D39B01DE87330BFB4090
:10240000B38CFC40B38BFB4063800A04C247C5CF4A
:102410006354A003CA856A862685EF00F0504E8675
:10242000AA852A892685EF00103C2ACECE852685EE
:10243000EF009021F247BE893386AA4111C6CE85AE
:102440002685EF00704EAA8985452685EF00103855
:10245000E247AA8A635BF0063E86AA852685EF00DE
:10246000B04C12478547AA8A014D63C8E706014D63
:1024700063120A069317CC00528DA9EFB705F07FBF
:10248000337CBC0063080C04050B850B054D99A03B
:10249000138DFDFF63CAAA01338DAA4163DE0D00CF
:1024A000B30CBB41814725BFE247B30A5D41D697D4
:1024B0003ECCEA8A014DDDB7DA8CEE870DB7568D3A
:1024C000DA8C014925B756869DBF12478547014DD5
:1024D000E3DFE7F8E247054589CF83A70A018D07C7
:1024E0008A07D697C843EF0070239307000233850D
:1024F000A7405E957D8951C193070002898F1147DE
:10250000635AF706F1473385A7402A9BAA9CAA9BEA
:1025100063586001CE855A862685EF00304CAA8923
:1025200063587001D6855E862685EF00304BAA8AF7
:10253000B257B1C7D6854E85EF00F05663510504FA
:10254000CE85814629462685EF003014C2477D148A
:10255000AA89638C0726CA85814629462685EF000D
:10256000D012A2472A896345F0081247894763D1F0
:10257000E70829A8E38EE7F83E85710579B763453A
:10258000B0071247894763D1E7066EC4A24791EFAF
:10259000D685814615462685EF00300FAA8AAA8582
:1025A0004E85EF005050E34DA0B4B247024A13C429
:1025B000F7FF014BD6852685EF001009E30909D8FE
:1025C00063080B0063062B01DA852685EF00D00730
:1025D000CA852685EF0050079DBB814A0149F1B7A6
:1025E0006A84814A014929BEC2476EC46386071EB8
:1025F00063589001CA8566862685EF00303E2A8999
:102600004A8563060D02832549002685EF00607B1D
:10261000032609012A8B9305C90009060A0631051C
:10262000EF00C06E0546DA852685EF00303B824715
:1026300022474A8B138C1700BA973EC693771A002D
:102640002A893EC4D6854E85EFF06FC6DA852A8D7D
:10265000930D05034E85EF0010454A86AA8BD6855B
:102660002685EF0070475045930CFCFF2A8A0547EA
:1026700011E6AA854E85EF0010432A87D28526856C
:102680003AC8EF00607C92474247628AB3E6E700AF
:10269000A247DD8E81EE130790036388ED04635437
:1026A0007001930D1D032380BC0129B763CA0B0081
:1026B0009247B3EB7701A247B3EBFB0063950B04A2
:1026C000E353E0FECE8505462685EF003031D68502
:1026D000AA89EF00503D6346A00071F513F71D0075
:1026E00079D313079003E39EEDFA930790032380B9
:1026F000FC00930690038347FAFF1307FAFF638CED
:10270000D708850745A0635BE00013079003E38EBD
:10271000EDFC93871D002380FC0069BDB247A30F29
:10272000BCFF63818705CE85814629462685EF005B
:10273000C075AA8981462946DA85268563182B014A
:10274000EF00A0742A8B2A89050CEDBDEF00E07321
:10275000CA852A8B814629462685EF0000732A897F
:10276000E5B7014BCE8505462685EF003027D68597
:10277000AA89EF005033E34EA0F601E593F71D0060
:10278000ADFB930700030347FAFF9306FAFFE31339
:10279000F7E2368ACDBF82476399E7000247050416
:1027A000930710032300F70031B53A8AA9B75247BF
:1027B00097370000938787433EC097370000938781
:1027C0006743631707CE6FF0EFCEA2476346F00072
:1027D00012478947E3CCE7DA024AD6854E85EFF007
:1027E0000FAD8247050A930D05033307FA40A24750
:1027F000A30FBAFFE357F7F6CE8581462946268513
:10280000EF00A068AA89D1BF83D7C500011122CCEF
:1028100026CA06CE4AC84EC613F78700AA842E845D
:1028200079EFD841634DE000B841634AE0000145CB
:10283000F2406244D2444249B24905618280585410
:102840007DD703A904009396370123A0040063DE1B
:10285000060670488357C400918B99C75C401D8E53
:102860005C5899C33C401D8E5C540C5081462685B3
:102870008297FD570357C400631DF5009440F54748
:1028800063E9D706B70740208507B3D7D700858B04
:10289000ADC31C48232204001CC09317370163D822
:1028A0000700FD576314F5009C4091E368C84C583D
:1028B00023A02401ADDD930744046385F50026853C
:1028C000EF003040232A04029DB70C500146854694
:1028D00026850297FD572A86E31EF5F69C40BDDB50
:1028E00075476385E70059476394E70423A02401F3
:1028F0003DBF136707042316E4007D5515BF83A968
:102900000501E38609F203A905008D8B23A035019B
:1029100033093941014791E3D84918C4E35920F1FB
:102920001C540C50CA864E86268582976349A000A7
:102930008357C40093E707042316F4007DBFAA99C8
:102940003309A940E1BF9C49B9CF011122CC06CE81
:102950002A8411C51C4D81E72EC63122B245973716
:1029600000009387A72B639BF5004C408397C5001D
:1029700095C722856244F240056179B5973700001A
:102980009387C72B6394F5000C44CDB797370000AD
:102990009387C726E39CF5FC4C44C9BFF2406244D0
:1029A00001450561828001458280411122C406C62D
:1029B0002A842316B5002317C500232005002322EF
:1029C0000500232405002322050623280500232AC9
:1029D0000500232C0500214681451305C505EFD0D0
:1029E0003F8F97170000938767F85CD09717000018
:1029F0009387C7FA1CD497170000938707FF5CD40E
:102A0000971700009387C70100D01CD8B24022441A
:102A10004101828097050000938525F3B1A2411101
:102A200026C2130680069384F5FFB384C4024AC00D
:102A30002E8922C406C693854407EF00D0322A842B
:102A400001CD2320050023222501310508C413866A
:102A500084068145EFD0DF872285B240224492442C
:102A60000249410182801C4DADE3411106C622C4DA
:102A700097070000938747FA1CD5938701819C43F1
:102A80002324050423260504232805046314F500E4
:102A900085471CCD2A841D2848C02285052808C4E6
:102AA00022852D2048C4484001469145FD3D0844FB
:102AB0000546A545DD3D48440946C945FD358547E0
:102AC0001CCCB24022444101828082804111938714
:102AD000018126C284434AC006C69C4C22C42A896E
:102AE00099E326854937938484048044DC40FD17AC
:102AF00063D607009C40B9CF8440C5BF0317C4000C
:102B000039E7C17785072322040623200400232206
:102B10000400232404005CC423280400232A0400A6
:102B2000232C0400214681451305C405EFD04FFA3C
:102B3000232A0402232C040223240404232604044D
:102B40002285B2402244924402494101828013040A
:102B5000840671BF91454A85D93588C051FDB1477A
:102B60002320F9000144E9BF797122D44AD052CC24
:102B700056CA5AC85EC606D626D24ECE2A8AAE8A13
:102B8000130485040149054BFD5B09ECB250225446
:102B90004A8592540259F249624AD24A424BB24B98
:102BA00045618280044483294400FD1963D40900EF
:102BB0000040E1BF83D7C400637BFB008397E40040
:102BC00063877701A6855285829A3369A900938429
:102BD0008406E1BF9387C1809C43885309E517D5DC
:102BE000FF1F1305254A1305050F82801971A6DA08
:102BF000AE848395E500A2DC86DE328463DC0500CA
:102C000083D7C40023A0060093F7070885E793073E
:102C100000401DA0300836C6EF003066B246E341E2
:102C200005FE7247BD67F98F7977BA9793B717009A
:102C30009CC2F1BF930700041CC0F6506654D654E2
:102C400001450961828083D7C500011122CC06CEDF
:102C500026CA4AC8898B2E8489CF930774041CC066
:102C60001CC885475CC8F2406244D24442490561B1
:102C7000828074003000AA84953FA2452A89268567
:102C8000EF00700E01ED8317C40013F7072061FFFA
:102C9000F19B93E727002316F400C1B797070000C4
:102CA000938787D79CD48357C40008C008C893E78C
:102CB00007082316F400A2475CC8B24791CF8315DA
:102CC000E4002685EF00305E01C98357C400F19B04
:102CD00093E717002316F4008357C4003369F90003
:102CE0002316240149B79387C180AA8588436F00C2
:102CF000900793F5F50F2A966314C500014582806D
:102D000083470500E38DB7FE0505FDB7B3C7A500F2
:102D10008D8B3307C50081E78D4763EEC700AA8717
:102D20006370E50A83C6050085078505A38FD7FE76
:102D3000E3EAE7FE828093763500AA8791CA83C6CC
:102D4000050085078505A38FD7FE93F63700FDB7ED
:102D50009376C7FF138606FE63F0C70683A30500BC
:102D600083A2450083AF850003AFC50083AE050194
:102D700003AE450103A3850183A8C50193854502E0
:102D800023A0770003A8C5FF23A2570023A4F701BF
:102D900023A6E70123A8D70123AAC70123AC670014
:102DA00023AE17019387470223AE07FF75B7904103
:102DB0009107910523AEC7FEE3EBD7FEE3E4E7F608
:102DC00082805C51411122C44AC006C626C22A84B0
:102DD0002E8981EF4145013F48D02322050023245D
:102DE000050023200500232605004450DC4495C738
:102DF0005850931729005847BA9788431DED8544CA
:102E0000B3942401138654000A068545228579254A
:102E100011CD2322250104C51DA0130610029145E2
:102E20002285AD2D5C50C8C4DC47F9F30145B240A2
:102E300022449244024941018280184198C32328C8
:102E4000050023260500E5B75C51011122CC06CE12
:102E50002A8491EF41452EC67935B24548D02322C8
:102E6000050023240500232005002326050091C921
:102E70005450DC4113972700DC46BA97984398C119
:102E80008CC3F24062440561828079714ECEAA897A
:102E9000416522D426D22E84844906D64AD0D10553
:102EA00001487D159C419105050833F7A7003307BC
:102EB000C702C183B387C702369793560701698F4C
:102EC000B69793D60701C207BA9723AEF5FEE34B38
:102ED00098FC8DCE1C4463C4F4024C404E8536C62B
:102EE0008505C53510489305C4002A8909060A06D8
:102EF0003105293DA2854E85813FB2464A8493879C
:102F000044008A07A297D4C3850404C82285B2501E
:102F1000225492540259F249456182804177698F67
:102F2000AA87014519E3C2074145370700FF7D8F96
:102F300019E32105A207370700F07D8F19E311057A
:102F40009207370700C07D8F19E309058A0763C917
:102F500007001397170005056344070013050002D7
:102F600082801C4113F777000DC393F617000147C9
:102F700099E613F7270011C785831CC105473A85D9
:102F8000828089831CC10947DDBF93960701C182F6
:102F9000014799E2C183414793F6F70F99E2210770
:102FA000A18393F6F70099E21107918393F6370016
:102FB00099E20907898393F6170081E6858305075F
:102FC00099C31CC16DBF1307000255BF411122C434
:102FD0002E84854506C6F53340C9B24022440547D4
:102FE00018C94101828098491C4A797126D206D6B7
:102FF00022D44AD04ECEAE846354F700B2842E86DB
:1030000083A90401032906019C44CC40338429018F
:1030100063D38700850532C66D33324613084501F8
:10302000131324004293C28763ED67029385440122
:10303000939829005106131E2900C166AE98329E4E
:10304000FD166364C6036356800071138327030073
:10305000F1CB00C9B250225492540259F249456151
:10306000828023A007009107C1B7832F0600B3FF1A
:10307000DF00638A0F04428FAE82814403A70200FF
:1030800083230F00110FB37ED700B38EFE03B3F777
:10309000D30093D303019102BE9E93570701B387D8
:1030A000F703A69E13D70E01B3FEDE009E97BA97D4
:1030B00093D40701C207B3E7D701232EFFFEE3EF46
:1030C00012FB23209F0083522600638A0204832779
:1030D0000800C28E2E8F814F03270F0083D32E004E
:1030E000F58F758F33075702910E110F1E977E973C
:1030F000931F0701B3E7FF0023AEFEFE8357EFFFE8
:1031000083AF0E004183B3875702B3FFDF00FE9702
:10311000BA9793DF0701E3611FFD23A0FE001106AC
:10312000110805B77D1405B7011126CA4AC84EC655
:1031300006CE22CC52C4937736002A89B284AE8957
:1031400081CFFD1717370000130747C08A07BA97CA
:10315000904381461D3BAA898984A5C883274902DB
:1031600091EF4145EFF03FB82322A9022322050049
:10317000232405002320050023260500032A4902F5
:1031800003248A0011E8930510274A8581352324FA
:10319000AA002A842320050093F7140091CBCE8542
:1031A00022864A8589352A8ACE854A857139D2890F
:1031B000858481CC084001E92286A2854A8525358F
:1031C00008C0232005002A84C1BFF24062444E8516
:1031D000D2444249B249224A05618280797126D29D
:1031E000AE844ECE83A9040122D4CC411354564060
:1031F0009C44A2994AD056CA06D652CCAA8A1389B0
:10320000190063C22709568532C6653E32469307C8
:1032100045012A8ABE8601479106634987066353A2
:103220000400014494480A04338787008A06938780
:1032300044017D8ABE9639CE130800023308C84087
:1032400081458843110791073315C500C98D232E89
:10325000B7FE83A5C7FFB3D50501E3E4D7FE0CC3D2
:1032600099C1138929007D1923282A015685A6852D
:10327000E13EB2502254528592540259F249624AB8
:10328000D24A4561828085058607A5BF23AE06FE2A
:10329000050759B7910703A6C7FF1107232EC7FEDD
:1032A000E3EAD7FEC9B71C499849998F8DE30A070D
:1032B0005105D105B306E500BA95F116F115904216
:1032C00098416308E600FD576363E60085473E8545
:1032D0008280E364D5FEE5BF011126CAAE844EC6E6
:1032E000B285AA89268522CC06CE4AC83284653F9B
:1032F00005E181454E85EFF0DFAC85471CC9232AE7
:103300000500F2406244D2444249B24905618280DC
:10331000054963460500A28701492684BE844C40C6
:103320004E85EFF01FAA0323040183A804011306AE
:103330004401131E2300138844018A08C16E23260A
:103340002501329EC29893064501014FFD1E184289
:10335000832F08009106B375D701B3F7DF01FA9503
:103360009D8D93DF0F0193570701B387F74113D763
:103370000541BA9713DF0741B3F5D501C207CD8FD9
:10338000110823AEF6FE1106E36318FDC165FD15B5
:103390006368C601F1169C4295C72328650095B75E
:1033A0001C429106110633F7B7007A97135807416C
:1033B000C183C29713DF07416D8FC207D98F23AE38
:1033C000F6FEF9B77D13F9B7797122D42E848545BD
:1033D00026D24AD0B2844ECE52CC3A8906D6368A0C
:1033E000EFF03F9E370710009307F7FFE58FD1807E
:1033F00093F4F47FAA89B5E03EC62DC4280022C408
:10340000EFF03FB6A24621CD324793070002898FE5
:10341000B317F700D58F3357A70023AAF9003AC690
:10342000324423AC890033348000050423A889008A
:10343000B9C49384D4BCAA949307500323209A0060
:103440003385A7402320A900B25022544E859254C0
:103450000259F249624A45618280D98F71BF23AA1D
:10346000D9007DBF6800EFF0DFAFB247130505025A
:10347000054423AAF900854723A8F90055BF9317EF
:1034800024001305E5BCCE972320AA00884B160420
:10349000EFF0DFA8098C232089007DB73386C502B1
:1034A000011122CC06CEB28532C675282A8409C500
:1034B00032468145EFC0DFE12285F240624405617A
:1034C0008280CDC183A7C5FF411122C406C626C292
:1034D0001384C5FF63D307003E94AA84B12D93875C
:1034E00001829C4399EB2322040023A08182224481
:1034F000B24026859244410189A5637EF4001440C0
:103500003307D4006396E7009843DC43369718C02E
:103510005CC0E1BFBA87D84319C3E37DE4FE94439E
:103520003386D700631F86001040B29694C333865B
:10353000D700E31EC7FA10435843B29694C3D8C3CA
:103540007DB76375C400B1479CC055B71040B30642
:10355000C4006316D70014435843B29614C058C031
:10356000C0C371B78280011126CA93843500F198D7
:1035700006CE22CC4AC84EC6A104B14763F1F4047A
:10358000B14463E0B4042A89452B938701829843B0
:103590003A8431E0938741829C4391E781454A8593
:1035A000792E23A2A182A6854A85512EFD59631743
:1035B0003507B1472320F9004A85412329A0E3D2EA
:1035C00004FCB1471CC10145F2406244D244424967
:1035D000B249056182801C40858F63CE0702AD46EB
:1035E00063F6F6001CC03E9404C031A05C40631238
:1035F000870223A0F1824A8589231305B40093072B
:10360000440061993307F54061D33A94898F1CC017
:1036100065BF5CC3CDB722874040A5BF130435000A
:103620007198E30385FCB305A4404A85092EE31D88
:1036300035FB41B71C46FD171CC663DA0700184E60
:1036400063C5E700A9476394F5006FE0CFA81C426B
:103650002E851387170018C22380B70082800111BE
:1036600022CC26CA4AC84EC652C406CE2A89AE8982
:103670003284B304D6007D5A63149400014509A82E
:10368000834504004E864A8575370504E31645FFD9
:10369000F2406244D2444249B249224A05618280E2
:1036A000357122CD26CB4AC94EC706CF52C556C367
:1036B0005AC1DEDEE2DCE6DAAA89AE8432893684DB
:1036C00009C51C4D99E3EFF00FBA972700009387C7
:1036D000E754639CF40C83A4490083D7C400A18BF6
:1036E000FDC79C48EDC793070002A304F1029307AE
:1036F000000302D22305F10222C6930B5002972A3F
:103700000000938A6A65054C294B4A84834704006C
:1037100099C36391770FB30C2441638D0C00E68647
:103720004A86A6854E85253FFD576307F51E9256AE
:10373000E69636D2834704006380071EFD571309BF
:10374000140002C802CE3ECA02CCA309010482D4EE
:103750008345090015465685EFF0AFD913041900CB
:10376000C24759E913F7070109C713070002A30964
:10377000E10413F7870009C71307B002A309E104A6
:10378000834609001307A0026380E608F2474A84D3
:10379000814625460347040093051400130707FDDF
:1037A0006379E60AB5CA3ECE85A8972700009387BD
:1037B000E7486395F40083A4890005B797270000C4
:1037C0009387C743E39BF4F083A4C90039B7A68568
:1037D0004E85EFE0AF9C01D97D55FA406A44DA444A
:1037E0004A49BA492A4A9A4A0A4BF65B665CD65C51
:1037F0000D618280050419BF330555413315AC00B6
:10380000C98F3EC82289A9B732479306470018439B
:1038100036C6634907023ACE034704009307E00225
:10382000631FF704034714009307A002631BF7020A
:10383000B2470904138747009C433AC663C1070295
:103840003ECA35A83307E04093E727003ACE3EC88A
:10385000E1B7B387670385462E84BA9725BFFD5726
:10386000C5B7050402CA81468147254603470400BF
:1038700093051400130707FD6378E606F1F283450C
:1038800004000D46172500001305854DEFF06FC6A7
:1038900011CD972700009387A74C1D8D9307000437
:1038A000B397A700424505045D8D2AC883450400EF
:1038B0001946172500001305E54A130914002304CF
:1038C000B102EFF00FC32DC197D7FFFF9387C765F4
:1038D00095E74247B2471377071009CF91073EC6D5
:1038E0009257D2973ED215B5B387670385462E848B
:1038F000BA97ADBF9D07E19BA107D5B778009706A2
:103900000000938606D626860C084E85EFD08FE100
:10391000FD572A8AE316F5FC83D7C40093F7070402
:10392000E39C07EA125555BD780097060000938680
:1039300046D326860C084E85EFD09FBBD1BF4111E0
:1039400022C42A842E8523A4018206C6EFD06FB13B
:10395000FD576317F500938781829C4391C31CC078
:10396000B240224441018280411122C42E848395B9
:10397000E50006C6E122634905007C48AA977CC899
:10398000B2402244410182808357C4007D777D1775
:10399000F98F2316F400EDB783D7C500011122CCAF
:1039A00026CA4AC84EC606CE93F70710AA842E84AC
:1039B0003289B68991C78395E50089460146092A6F
:1039C0008357C4007D777D17F98F2316F400831584
:1039D000E4006244F240CE864A86B24942492685D6
:1039E000D24405613DA8411122C42E848395E5008F
:1039F00006C6F928FD570357C400631BF500FD7781
:103A0000FD17F98F2316F400B24022444101828051
:103A10008567D98F2316F40068C8FDB78395E50044
:103A200005A8411122C42A842E85B285368623A496
:103A3000018206C6EFD04F9FFD576317F5009387AD
:103A400081829C4391C31CC0B240224441018280C8
:103A5000411122C42A842E8523A4018206C6EF10B8
:103A60001077FD576317F500938781829C4391C3BC
:103A70001CC0B240224441018280411122C42A84E8
:103A80002E85B28523A4018206C6EF101075FD575E
:103A90006317F500938781829C4391C31CC0B24099
:103AA000224441018280411122C42A842E8523A40C
:103AB000018206C6EF103073FD576317F500938738
:103AC00081829C4391C31CC0B24022444101828048
:103AD000411122C42A842E85B285368623A4018210
:103AE00006C6EF101071FD576317F50093878182AA
:103AF0009C4391C31CC0B24022444101828085E1B5
:103B000041116C00014511CA795581CA83470600ED
:103B10009CC1034506003335A00041018280014568
:103B200019CA795589CA834706009CC10345060016
:103B30003335A0008280828082808280411122C43D
:103B40002A842E85B285368623A4018206C6EF100C
:103B5000106BFD576317F500938781829C4391C3D7
:103B60001CC0B24022444101828091CD9307F00FE6
:103B700063F7C7009307A0081CC17D55828023808E
:103B8000C50005458280014582803708100001117B
:103B90007D183377B80026CA3378D80093D445010E
:103BA00013D34601131E37004EC61357D5010E0816
:103BB0009357D60193F4F47F1373F37F06CE22CC90
:103BC0004AC893D9F50193DEF6013367C701131F85
:103BD000350033E80701931F3600338E644063805D
:103BE000D9196356C0136304031CB70680009307FA
:103BF000F07F3368D800638FF4369307800363C087
:103C0000C735FD4763CDC747130500023305C541DE
:103C1000B3D7CF01B316A8003399AF00DD8E333987
:103C20002001B357C80133E926011D8F33092F4105
:103C3000B3372F013306F7409317860063D4072468
:103C4000370780007D173374E600630C042C22854F
:103C5000EFD04F8E130785FF93070002998FB3575C
:103C6000F9003316E400D18F3319E9006341972A34
:103C700033059740130615007D47634DC73813077A
:103C80000002118FB356C9003319E9003397E700DA
:103C9000558F333920013369270133D6C70081445A
:103CA0009377790081CF1377F90091476308F70084
:103CB00013074900333927014A963A89931786003A
:103CC00063D6071C138514009307F07FCE85630429
:103CD000F520B70780FFFD17F18F9398D70113598F
:103CE0003900A607B3E82801B1831375F57F9396D1
:103CF000C7005205F2406244B182FE05C98ECD8EE6
:103D0000D2444249B2494685B68505618280631E28
:103D10000E0A138314001373E37F63170322B36740
:103D2000E701B368F801639D041A6387074063865F
:103D300008443309FF41B307074133362F01338667
:103D4000C7409317860063D6074C3389EF41B3070A
:103D5000E84033B62F013386C740F68991B76350E8
:103D6000C00F6300030CB70680009307F07F336831
:103D7000D800638AF43A9307800363CBC713FD47E7
:103D800063DFC73513090EFE93070002B3562801FF
:103D9000630AFE00130900043309C94133192801DD
:103DA000B3EF2F013339F0013369D90031A2B36782
:103DB000F801638A071C9307FEFF638C073893069C
:103DC000F07F6309DE1A3E8E0DBDB305934063910B
:103DD0000422B367E701638707329387F5FF6381A6
:103DE00007449306F07F638CD520BE85930780033C
:103DF00063CCB72AFD4763CFB73C930700028D8F92
:103E00003319F700B356BF00B317FF003369D90069
:103E1000B337F0003357B7003369F9003308E8408F
:103E200041ACB367F801638007349307FEFF638AF0
:103E300007209306F07F6308DE2E3E8E2DBF631EA3
:103E40000E149386140093F7E67F63910734B367EB
:103E5000E7016395042C6380073EB367F801638E26
:103E600007303309FF01B3070701333FE901338608
:103E7000E7019317860063D70700B70780FFFD1798
:103E80007D8E854493777900E39F07E09317D601F1
:103E900093583900B3E8F800935736001307F07FC2
:103EA000638DE404B207B18313F5F47FCE8581B549
:103EB0003369F801333920017A99B337E901338640
:103EC000E70093178600E3DF07FA85049307F07F86
:103ED0006396F418CE851305F07F8147814801BDB4
:103EE000C1EB6384083A931636009317D8018D828C
:103EF000B3E8D700F68993573800B3E7F800F9DB49
:103F000081451305F07FB70708008148CDB3370618
:103F100080FF7D167D8E93777900998CE39507D885
:103F2000B5B74A85EFC01FE113078501FD47E3D50B
:103F3000E7D2130685FFB317C900014905BB3369F2
:103F4000F80133392001DDB13309FF413306074160
:103F500033342F01330486409317840063CD072444
:103F6000B3688900E39308CE8147814981441DBF2E
:103F7000E39808F80E059317D7010D81B3E8A70061
:103F8000935737009DBF0E059317D7010D81B3E8F6
:103F9000A700F2849357370011B73305934063822B
:103FA0000412B70680009307F07F558F630DF32E40
:103FB0009307800363CBA720FD4763C3A72A93071A
:103FC0000002898F3319F700B356AF00B317FF0013
:103FD0003369D900B337F0003357A7003369F900CC
:103FE0003A987E99B337F901338607019A84D1BD97
:103FF000B70680009307F07F558FE319F3DE931720
:1040000036008D839318D801B3E81701F6899357CA
:104010003800E5B5130715FE9306000233D7E70015
:10402000630AD600930600043386C6403396C70061
:104030003369C900333920013369E90001468144FD
:1040400091B53309FF01B30707013336E9013E9605
:10405000931786008544E3D707E28944B70780FFBA
:10406000FD17F18F135719001379190033692701D0
:104070009398F70133E9280113D6170015B11309F6
:104080000EFE93070002B3562801630AFE001309CF
:1040900000043309C94133192801B3EF2F01333923
:1040A000F0013369D90059B63369E701333920018A
:1040B00033892F41B3B72F013306F8409A84F6892C
:1040C000A5BEB367E701638207189307F5FF638412
:1040D000071C9306F07F6304D5123E85D1BD93077C
:1040E0000002B387C741B316F8003399FF0033D6F7
:1040F000CF01D18E33392001B357C80133E92601EE
:104100003E975DBB931736008D839318D801B3E8B3
:104110001701AE8493573800F68949B3EDC333696C
:10412000F801E31F09DC0E059317D7010D81B36871
:10413000F50093573700D1B36381080E931636000C
:104140009317D8018D82B3E8D700F68993573800CA
:1041500091BB3309FF41B3070741333F2F0133863A
:10416000E7418544D1BC0E059317D7010D81B36893
:10417000F500F2849357370015B30E059317D70156
:104180000D81B3E8A7009357370029BB9307F07F51
:10419000E382F6D43309FF013336E901B30707019F
:1041A000B2979398F7011359190033E9280113D6F0
:1041B0001700B684C1B93389EF413307E84033B6FD
:1041C0002F013304C740F68949B43369E701333915
:1041D000200101BD938705FE93060002B357F70047
:1041E000638AD50093060004B385B6403317B70041
:1041F000336FEF003339E0013369F90055BD931790
:1042000036008D839318D801B3E81701935738000F
:10421000EDB1B368C900E39708C68147814959B138
:104220003389EF41B307E84033B62F013386C740E7
:10423000F689854411B4931636009317D8018D8200
:10424000B3E8D70093573800B1B9931636009317E7
:10425000D8018D82B3E8D700AA84935738003DB9BE
:10426000930705FE93060002B357F700630AD500D3
:10427000930600043385A6403317A700336FEF0081
:104280003339E0013369F900A9BB81451305F07F9B
:10429000B7070800A9BC3309FF01B307070133368C
:1042A000F9013E9675B3931636009317D8018D82A7
:1042B000B3E8D7009357380089B1397193D74501D6
:1042C00022DC4AD856D22A891394C50006DE26DAA3
:1042D0004ED652D45AD05ECE13F5F77F318093DAA2
:1042E000F501630B05109307F07F630BF514135A68
:1042F000D9010E0433648A00370A8000336A44010E
:10430000131B3900930415C00144814B13D8460197
:104310001399C6001378F87FB2881359C90093D94E
:10432000F601630E08089307F07F6300F804135743
:10433000D6010E0933692701130818C0B70780009A
:104340003367F90093183600B38404418145BD47B3
:1043500033C83A0163E4871A97270000938747B26E
:104360000A043E9410403E9602863367C900938447
:104370001480631207101364240081488945C1BF6B
:104380001306F07F81470147B207F250625452068C
:10439000B1837E08D18FB3E70701D2544259B25995
:1043A000225A925A025BF24B3A85BE852161828085
:1043B00001481306F07FB70708000147F1B73367DC
:1043C000C9004DC7630809304A8532C4EFC09F96C3
:1043D0002246130755FFF547930685FF998F33193A
:1043E000D900B357F60033E72701B318D600269556
:1043F0009304353F8145A1BF336A240163030A0654
:1044000036C632C46306042A2285EFC0BF92224614
:10441000B246AA84130755FF754A138B84FF330AEB
:10442000EA4033146401335A4901336A8A00331B6A
:1044300069011305D0C0B30495400144814BF9B51F
:10444000336A240163180A002144014B9304F07F6E
:10445000894B6DBD228A4A8B31449304F07F8D4B8A
:1044600075B51144014B8144854B4DB5136414005F
:1044700081488545E9BD136434004A878D45C1BD37
:10448000630A052E8547898F9306800363DDF63224
:10449000014681470147CDBDCE868947638DF53AF8
:1044A0008D47E387F5F085473688E383F5FE13856E
:1044B000F43FE357A0FC93F778006396072893D660
:1044C00038009317770063D80700B70700FFFD1780
:1044D0007D8F138504409307E07FE3C3A7EA13169B
:1044E000D70193179700B1833367D6001376F57F12
:1044F00061BDD6865287DA88DE8545B7636147237A
:10450000630DEA20DA86FD145284014B931787006D
:1045100013D388013363F300935E0301B357D403CD
:10452000131F0301135F0F0193D50601139E88002B
:104530003374D4033307FF024204C18D63FBE500EB
:104540009A951386F7FF63EE652663FCE526F91757
:104550009A95998D33D7D503C206C182B3F5D50399
:104560003306EF02C205D58D63FBC5009A9593060D
:10457000F7FF63E6652463F4C52479179A95C207AB
:1045800041645D8F9307F4FF3375F700935807017B
:10459000935F0E01B377FE00B302F502B386C54008
:1045A000B383F80293D502013386AF021E962E968E
:1045B0003385F803637376002295C168FD1893551F
:1045C0000601337616014206B3F81201AA95469603
:1045D00063E6B6126382B6123306CB408D8E333B50
:1045E000CB00338B66411385F43F630C6317B358DC
:1045F000DB0393550601337BDB03B3061F03420B3A
:1046000033EB6501637BDB001A9B9385F8FF636DD9
:104610006B20637BDB20F9181A9B330BDB40B3560E
:10462000DB0342064182337BDB03330FDF02420BA5
:1046300033666601637BE6011A969385F6FF63672E
:10464000661E6375E61FF9161A96C208B3E8D8000D
:104650009395080193D20801C181B38EF502330608
:10466000E641B385BF0293D60E01B387F202BE9531
:10467000AE96B38F5F0263F4F600C167BE9FC1655B
:10468000FD1593D70601ED8EC206B3FEBE00BE9F98
:10469000F696637FF6091A969387F8FF6369661AA0
:1046A0006368F619630FF61BBE8893E8180011B50E
:1046B0004A85EFC02FE813075501F1459304050221
:1046C0002246B246E3DAE5D4130485FF331A8900A3
:1046D000014B85B3328532C4EFC0CFE513075501D6
:1046E000F146AA87224613050502E3D6E6CEE11776
:1046F0003317F6008148E5B9E370CBEE729B333592
:10470000CB011A95AA961305F7FF6378D30263E6E7
:10471000B6106382D5102A87C1B5E3651BDF9355B8
:104720001B009316FA0113541A00CD8E7E0BF9BBB1
:10473000E31DF6F7E38F06D6B9BFE31ED3FCE3789B
:10474000CBFD2A8751BD93F7F8009146E389D7D670
:1047500093B7C8FF9386480093C717008D823E9792
:104760008DB381468547E34CA0FEFD58E31C05D080
:10477000930410C085471385E441B316A70033D6D0
:10478000F8003395A800D18E3335A000C98E13F6FA
:1047900076003357F70001CE93F7F6001146638891
:1047A000C70093874600B3B6D7003697BE869317E7
:1047B000870063D80704054681470147F1B636876D
:1047C0007DBBB28779B3FD46E3D7F6FA0556098E6D
:1047D000930600023356C7006388D7009387E443EB
:1047E000B317F700B3E8F800B3361001D18E13F613
:1047F0007600814701CE93F7F60011460147E39218
:10480000C7FA931797001316D701B18313D7360051
:10481000518F014695BEE370CBF0729B3335CB01CF
:104820001A957917AA964DBBAE88C5BBAE8631BD29
:1048300093171E0033BEC70172931A96F9183E8E65
:10484000E315F6E7E307DEC693E818009DB1BE88DE
:10485000E30AF6FF99BD36881306F07F81470147CA
:1048600025B6E367DEFCBE88E310DEFE99B113D700
:104870004501B7071000FD1713D846011377F77FDE
:104880009308F07F33FEB700AA8EF58FFD81328F3B
:104890001378F87FFD82630B170105436306180147
:1048A00063140701630DFE001A858280B368AE00B1
:1048B0000543E39B08FEE319E8FED18FF5F70543B6
:1048C000E394EEFF0143E381D5FE054371FF3365B9
:1048D000AE003333A000C9BF13D74501B70710009E
:1048E000FD1713D846011377F77F9308F07F33F352
:1048F000B7002A8EF58FFD81B28E1378F87FFD8286
:1049000063081703630018030DEBB368A300631477
:1049100008005D8E29CA638508046388D5020545B1
:1049200095ED8280B3E8C700E38008FE7955828068
:104930003365A30065FD630CE802631408005D8E17
:1049400079DEE39ED5FCE34CE8FC63480701E3E82D
:1049500067FC6303F302637FF30081E57D5582808A
:10496000F5DE054582800145E39B08FA82805D8E75
:1049700069DA6DBF01458280E3E3CEFB0145E37256
:10498000DEFBE5F1E1BF13D74501B7071000FD17C6
:1049900013D846011377F77F9308F07F33FEB700F3
:1049A000AA8EF58FFD81328F1378F87FFD82630E1A
:1049B0001703630D180129E3B368AE00631F0800F5
:1049C0005D8E01EE0143638C080421A8B3E8C700A3
:1049D0000943639608046DD305A0638408046385C6
:1049E000D50205438DCD7D531DA8B368AE000943A4
:1049F00063970802630AE802631408005D8E75D2AB
:104A0000E391D5FEE34FE8FC63490701E3EBC7FD03
:104A1000630FFE0001436374FE00F1D505431A8560
:104A20008280EDFE7D53E5BF5D8E79DACDBFE36A0E
:104A3000DFFB0143E3F5EEFFF5F175B739714AD8B5
:104A400013D945014ED652D456D29399C50006DEED
:104A500022DC26DA5AD05ECE1379F97F2A8A93D9DE
:104A6000C90093DAF501630D090E9307F07F630621
:104A7000F9181354D5018E09B36934013704800045
:104A800033E4890093143500130919C08149814B1F
:104A900013D74601139AC6001377F77FB285135ACE
:104AA000CA0013DBF601630B07109307F07F630363
:104AB000F7049357D6010E0A33EA4701130717C0CC
:104AC000B7078000B367FA00931536003A9981481A
:104AD00033C76A01BD463A851308190063E83617E3
:104AE000171600001306C63D8A09B29983A609006D
:104AF000B2968286B367CA001309F97F63990712D9
:104B000093E9290081458948E1B701479307F07F80
:104B10003704080081443204D20731807E075D8C5F
:104B2000598CA285F250625426854259D254B2590A
:104B3000225A925A025BF24B216182805A853E844E
:104B4000AE84C68B8947638DFB0E8D47E38FFBFADE
:104B500085472A87639EFB3881470144814465BFAE
:104B600033E4A90061C036C632C4638C092A4E857D
:104B7000EFC04F9C2246B246AA87130755FF7544E3
:104B8000938487FF198CB399990033548A00336456
:104B90003401B3149A0013D746011309D0C0139AF5
:104BA000C6001377F77F3309F9408149814BB285FD
:104BB000135ACA0013DBF601E31907EEB367CA0004
:104BC000B1C7630F0A22528532C4EFC0AF962246A6
:104BD0002A87930655FFF547930587FF958F331A6C
:104BE000BA00B357F600B3E74701B315B60033096F
:104BF000E9401309D9C08148E1BD33E4A90001ECC3
:104C0000A14981441309F07F894B59B593E91900F3
:104C10008145854875BD4E84AA84B1491309F07F4A
:104C20008D4BBDB5914981440149854B95B593E9BB
:104C30003900D2878D4869BD89475685E397FBF0D7
:104C40002A879307F07F01448144F1B5C16E138632
:104C5000FEFF93D6040113DE0501F18CF18D33863E
:104C600095023383B6029358060133059E021A95C6
:104C7000AA98B382C60363F36800F692C16F1383E8
:104C8000FFFF33F5670093D30701B3F76800C2074E
:104C9000337366003E933306950293D80801B387B9
:104CA000A602135F0601B3849302BE94FA94B38EF6
:104CB000760263F3F400FE9E416A9307FAFF935F66
:104CC0000401B376F400B3F9F4007D8EC18033841F
:104CD000D502C209338FD401B299CE98B307DE0250
:104CE000935E0401B385BF02AE97BE9E330EFE03F2
:104CF00063F3BE00529EC1679385F7FF33F6BE0093
:104D00006D8C4206229693DE0E01B305D502769E87
:104D10003385AF0213D40501B386D302AA96A296B7
:104D2000B38FF30363F3A600BE9F41657D15B3F710
:104D3000A600C2076D8DAA97B3855800B3B9350197
:104D4000FA97B2953384370133B6C500B30EC40168
:104D50003385CE0033343401B3B7E701C18F33BE9E
:104D6000CE0113D406013336C5003E943366CE001F
:104D70009394950032947E94B3E464002604935691
:104D80007501B3349000DD8193179500CD8C558C5F
:104D9000DD8C9317740063DB070093D714008588BC
:104DA0009316F401DD8CD58C058042899307F93F79
:104DB0006359F00893F6740081CE93F6F40011461F
:104DC0006388C60093864400B3B496002694B684E4
:104DD0009316740063D80600B70700FFFD177D8C9B
:104DE000930709409306E07F63CFF60E93D6340015
:104DF0009314D4012604D58C318093F7F77F21BB1F
:104E0000328532C4EFB01FF393065501F147130703
:104E100005022246E3D1D7DC6115B317A600814510
:104E2000F9B3EFB03FF113075501F14593070502C0
:104E30002246B246E3D5E5D461153314AA00814475
:104E400099BB85469D8EB1E71309E941B3972401CB
:104E5000B3D4D40033192401B337F000B3649900FC
:104E6000DD8C93F77400B356D40081CF93F7F40030
:104E700011466388C70093874400B3B49700A69691
:104E8000BE849397860063D8070485470144814414
:104E900059B113068003E341D6CC7D46E356D6FADA
:104EA0000556B307F640930500023356F4006387B6
:104EB000B6001309E943B3172401DD8CB334900025
:104EC000D18C93F67400014499CA93F7F40011460B
:104ED0008146E392C7FA139496003180F6068D80DE
:104EE000D58C81470DB99307F07F0144814425B1EA
:104EF00042896DBD370710007D1701113373B7006C
:104F000093D84601758F935ED60122CC26CA0E0334
:104F100093D445019357D5010E0706CE4AC84EC615
:104F200093F8F87F130EF07F33E7EE0093F4F47FED
:104F300013D4F50133E36700131F3500FD82931E80
:104F400036006380C81993C61600B3851441630503
:104F5000D4126351B018638B081AB70780005D8FB5
:104F60006381C4599307800363C4B734FD4763C5A5
:104F7000B748930700028D8FB3D9BE003318F700EE
:104F8000B39EFE00336838013357B700B339D00100
:104F9000336838013303E340B3090F41B3373F01AE
:104FA0003306F3409317860063D307243709800044
:104FB0007D1933792601630F092C4A85EFB09FD7FD
:104FC000130785FF93070002998FB3D7F9003316B3
:104FD000E900D18FB399E9006344972A058F13063E
:104FE0001700FD4663C5C63A13070002118FB3D6FA
:104FF000C9003398E9003397E700558F3338000133
:10500000B369070133D6C700814493F7790081CF94
:1050100093F6F90091476388F6009386490033B808
:1050200036014296B6899317860063D6071C13870C
:1050300014009307F07F05886306F720B70780FF09
:10504000FD17F18F1398D70193D93900A60733685C
:105050003801B1831377F77F9396C7005207B18267
:105060007E04D98EC18EF2406244D2444249B24994
:105070004285B685056182806356B00A638A08124C
:10508000B70780005D8F6387C42D9307800363C7D4
:10509000B718FD4763D2B73C138805FE930700029B
:1050A000B3590701638AF50093070004B385B7403D
:1050B0003317B700B3EEEE003338D0013368380150
:1050C00095A2B367D7019385148099E393C6160020
:1050D000630AD404D1E19387140093F7E77F6399BF
:1050E000071EB367E3013368D70163920416638236
:1050F000073C63160842131835009316D301135862
:10510000380033E806019357330019A2B367D7017B
:105110006385071A9387F5FF638B073A638CC52372
:10512000BE8589B56399051C9386140093F7E67FC5
:10513000C1EFB367E30163900436638D0744B3673F
:10514000D701639407460E051318D3010D81336808
:10515000A800935733006DA8B38598406397042047
:10516000B367E301638D07309387F5FF63890740D9
:105170001305F07F6383A520BE859307800363C278
:10518000B72AFD4763C8B73C930700028D8F3318D9
:10519000F3003356BF00B317FF003368C800B339BC
:1051A000F0003353B3003368380133076740B5ACC0
:1051B000B367D701638307109387F5FF638F071EDB
:1051C0006380C52FBE85D1B59307F07F638BF6064C
:1051D000FA9E33B6EE01B307E300B2971398F701D6
:1051E00093DE1E00B369D80113D61700B68493F777
:1051F0007900E39F07E09317D60113D8390033688D
:10520000F800A685935736001307F07F6380E50604
:10521000B207B18313F7F57F05883DBD3367D7012A
:105220003338E000B309E801B3B7E901338667001A
:1052300093178600E3DD07FA85049307F07F639CEC
:10524000F41805881307F07F8147014831B5639151
:1052500007106301083C131836009317D701135841
:1052600038003368F800368493573700B367F80086
:10527000E9DB01441307F07FB70708000148E9BBE9
:10528000370680FF7D167D8E93F77900998CE39128
:1052900007D895B74E85EFB0FFA913078501FD47E5
:1052A000E3D2E7D2130685FFB397C90081492DB336
:1052B0003368D70133380001C5B11318350093178F
:1052C000D301135838003368F800935733002DBFCB
:1052D000B309DF413309E34033363F013309C940A5
:1052E0009317890063CA072033E82901E31508CC26
:1052F0008147014431BFB385984063810414B706E8
:1053000080009307F07F3363D3006381F820930715
:10531000800363CCB722FD4763C9B72C9307000213
:105320008D8F3318F300B356BF00B317FF003368F7
:10533000D800B339F0003353B300336838011A97FB
:10534000B309D801B3B7D9013386E700C684CDB518
:10535000E31108F2131835009317D30113583800DE
:105360003368F8009357330011B73705800093076F
:10537000F07F3363A300E392F8E00E061318D70121
:105380000D823368C800935737003684C5B50517BA
:105390009306000233D7E700630AD60093060004A1
:1053A0003386C6403396C700B3E9C90033383001AD
:1053B000B369E800014681441DBDB309DF01B307AD
:1053C000E30033BFE9013386E70193178600854484
:1053D000E3DF07E08944B70780FFFD17F18F13D79C
:1053E000190013F81900336807019399F701B3E91D
:1053F000090113D6170011B9138805FE930700029F
:10540000B3590701638AF50093070004B385B740D9
:105410003317B700B3EEEE003338D00133683801EC
:10542000A5BE3363E30133386000B3890E41B3B7DF
:105430003E013306F740C6843684ADB6B367E30158
:10544000638707189387F5FF638C071C9306F07F2B
:10545000638ED50ABE8565BD930700028D8FB3D9D3
:10546000BE003318F700B39EFE003368380133578F
:10547000B700B339D001336838013A9365B31318D4
:1054800036009317D7011358380033E807013684E4
:105490009357370095BBBDCB3367D701E31B07DCC0
:1054A0000E051318D3010D813368A80093573300FC
:1054B00075BBE30F08E2131836009317D701135892
:1054C00038003368F80036849357370091B3B30936
:1054D000DF41B307E340333F3F013386E741854473
:1054E000D1B4131835009316D3011358380033E89C
:1054F0000601935733009DBBB389EE4133066740E5
:1055000033B93E0133092641368475B40E061318AB
:10551000D7010D823368C8009357370081BBB309A8
:10552000DF41B307E34033363F013386C74093176B
:10553000860063D7070AB389EE41B3076740B3BE5D
:105540003E013386D7413684C9B43363E30133382F
:105550006000FDB3138805FE93070002B3590301F1
:10556000638AF50093070004B385B7403313B30093
:10557000336F6F003338E001336838017DB5B3898C
:10558000EE41B3076740B3BE3E013386D741368450
:10559000854409BC131836009317D70113583800F7
:1055A0003368F80093573700A5B1B309DF01B3079B
:1055B000E30033BFE9013386E70193178600E3D8A0
:1055C00007C2B70780FFFD177D8E85440DB10E061B
:1055D0001318D7010D823368C800935737002DB1D7
:1055E00033E8C900E30608D019B1138805FE930714
:1055F0000002B3590301638AF50093070004B385E1
:10560000B7403313B300336F6F003338E0013368B2
:1056100038013DB301441307F07FB70708002DBCE4
:10562000B309DF01B307E300B3BED9013386D70165
:1056300069BB13D74501B7071000FD171347F7FFE4
:1056400013D84601FD8DF58F931657011378F87F17
:1056500099CA1307F07F01456303E8008280D18F68
:105660003335F0008280C98D0545E5D5828093D71A
:105670004501B70610001387F6FF93F7F77F13066F
:10568000E03F6D8FFD81635CF6001306D041635AE5
:10569000F600370500801345F5FF2E958280014501
:1056A0008280130630431D8E7D48558F635DC80090
:1056B00093063041B387F640B357F7003305F04007
:1056C000E5F13E8582809387D7BEB317F700335547
:1056D000C500C98FE5B7411106C622C426C20DCD4B
:1056E0009357F541B3C4A7009D8C2A842685EFB05B
:1056F0006FE49306E041898EA9477D8093F6F67F9B
:1057000063CDA7022D47098FB3D7E4005505B20733
:10571000B394A400B18329A0014481468147814408
:10572000B207D206B1837E04D58FC18FB240224426
:105730002685BE859244410182805515B397A40009
:10574000B207B1838144E9BF1DCD411122C406C611
:105750002A84EFB02FDE9306E041898EA94793F6A5
:10576000F67F63DCA7025515B317A400B207B18317
:105770000147B2402244B207D206B183D58F3A85A1
:10578000BE854101828081478146B207D206B1833E
:105790000147D58F3A85BE8582802D47098FB35743
:1057A000E400B207130755013317E400B183D1B702
:1057B0000328C500184154410C4521659307F5FFA6
:1057C00013560801139E35007D8E9358D70193D749
:1057D000D601131308018E064111B3E7C701B3E6E2
:1057E000160113530301131E370093081600791591
:1057F000F5810E033EC436C272C033F5A8001358BB
:10580000F801B3E5650005C97177130707403A96BB
:105810001307E07F635DC7041306F07F01478147EC
:105820003207520631837E08518F336707013E8568
:10583000BA8541018280D58FCD8FB3E7C70105E2DC
:10584000F1CB8147954693D53600139797009396F1
:10585000D701B3E7B60031831376F67FD1B7CDDF3A
:1058600001481306F07F37070800814755BF63469C
:10587000C00A9307C0FC634FF60E9307D00333862C
:10588000C7409357564037070800D98D1395270016
:105890000A8781462EC6B308A10011077D8AB3E6A8
:1058A000C60163091701032E07001107B3E6C601FD
:1058B000E31B17FF0D471D8F79CA93080101AA98B2
:1058C00083A808FF130E0002330ECE40B398C80120
:1058D000B3E6160175CB0A070A95B30EE1008A8874
:1058E0000C41032345009108B3D5C5003313C30110
:1058F000B3E5650023AEB8FE1105E3931EFF9145A5
:10590000B387F540B24508082A97B3D5C5002328C8
:10591000B7FE61A80146014721B7139746001395CA
:1059200047003367C701F182F18392053337E00006
:10593000C98ECD8FD98E13F7760011C713F7F600F5
:105940009145631CB702370780007D8FE30D07EE9A
:1059500005061307F07FE301E6EC370780FF7D17AC
:105960007D8F9317D7018D8226071376F67FD58F0B
:1059700031837DB585468147014613B7C6FF13477E
:105980001700BA973707800091067D8FC1B78A85C7
:10599000B388A50083A808009105050623AE15FF6E
:1059A000E358C7FE1147B307F7408A078A971808DC
:1059B00023A007009107E39DE7FE0247B336D0001E
:1059C0009247D98E014685BF854701472DBF930772
:1059D000800523A4F1827D5582809307800523A44E
:1059E000F1827D5582809307800523A4F1820145D1
:1059F00082809307800523A4F1827D5582809307DE
:105A0000800523A4F1827D558280000000000040C3
:105A10000000803F0000C04053797374656D436C93
:105A20006B3A2025640D0A00785B25645D203D20DB
:105A300025663B2000000000795B25645D203D2049
:105A400025663B0D0A00000074696D65203D202528
:105A5000640D0A000D0000000001020203030303AD
:105A600004040404040404040505050505050505EE
:105A700005050505050505050606060606060606CE
:105A800006060606060606060606060606060606B6
:105A9000060606060606060607070707070707079E
:105AA0000707070707070707070707070707070786
:105AB0000707070707070707070707070707070776
:105AC0000707070707070707070707070707070766
:105AD000070707070707070708080808080808084E
